{
	"contracts/Staking.sol": {
		"StakingContract": {
			"abi": [
				{
					"inputs": [
						{
							"internalType": "address",
							"name": "_stakingToken",
							"type": "address"
						}
					],
					"stateMutability": "nonpayable",
					"type": "constructor"
				},
				{
					"inputs": [
						{
							"internalType": "address",
							"name": "owner",
							"type": "address"
						}
					],
					"name": "OwnableInvalidOwner",
					"type": "error"
				},
				{
					"inputs": [
						{
							"internalType": "address",
							"name": "account",
							"type": "address"
						}
					],
					"name": "OwnableUnauthorizedAccount",
					"type": "error"
				},
				{
					"anonymous": false,
					"inputs": [
						{
							"indexed": true,
							"internalType": "uint256",
							"name": "poolId",
							"type": "uint256"
						},
						{
							"indexed": false,
							"internalType": "uint256",
							"name": "newAPY",
							"type": "uint256"
						}
					],
					"name": "APYAdjusted",
					"type": "event"
				},
				{
					"anonymous": false,
					"inputs": [
						{
							"indexed": true,
							"internalType": "address",
							"name": "previousOwner",
							"type": "address"
						},
						{
							"indexed": true,
							"internalType": "address",
							"name": "newOwner",
							"type": "address"
						}
					],
					"name": "OwnershipTransferred",
					"type": "event"
				},
				{
					"anonymous": false,
					"inputs": [
						{
							"indexed": true,
							"internalType": "uint256",
							"name": "poolId",
							"type": "uint256"
						},
						{
							"indexed": false,
							"internalType": "uint256",
							"name": "apy",
							"type": "uint256"
						},
						{
							"indexed": false,
							"internalType": "address",
							"name": "rewardToken",
							"type": "address"
						}
					],
					"name": "PoolCreated",
					"type": "event"
				},
				{
					"anonymous": false,
					"inputs": [
						{
							"indexed": true,
							"internalType": "address",
							"name": "user",
							"type": "address"
						},
						{
							"indexed": false,
							"internalType": "uint256",
							"name": "poolId",
							"type": "uint256"
						},
						{
							"indexed": false,
							"internalType": "uint256",
							"name": "reward",
							"type": "uint256"
						}
					],
					"name": "RewardClaimed",
					"type": "event"
				},
				{
					"anonymous": false,
					"inputs": [
						{
							"indexed": true,
							"internalType": "address",
							"name": "user",
							"type": "address"
						},
						{
							"indexed": false,
							"internalType": "uint256",
							"name": "poolId",
							"type": "uint256"
						},
						{
							"indexed": false,
							"internalType": "uint256",
							"name": "amount",
							"type": "uint256"
						}
					],
					"name": "Staked",
					"type": "event"
				},
				{
					"anonymous": false,
					"inputs": [
						{
							"indexed": true,
							"internalType": "address",
							"name": "user",
							"type": "address"
						},
						{
							"indexed": false,
							"internalType": "uint256",
							"name": "poolId",
							"type": "uint256"
						},
						{
							"indexed": false,
							"internalType": "uint256",
							"name": "amount",
							"type": "uint256"
						}
					],
					"name": "Unstaked",
					"type": "event"
				},
				{
					"inputs": [],
					"name": "COOLDOWN_PERIOD",
					"outputs": [
						{
							"internalType": "uint256",
							"name": "",
							"type": "uint256"
						}
					],
					"stateMutability": "view",
					"type": "function"
				},
				{
					"inputs": [],
					"name": "DEPOSIT_FEE_BPS",
					"outputs": [
						{
							"internalType": "uint256",
							"name": "",
							"type": "uint256"
						}
					],
					"stateMutability": "view",
					"type": "function"
				},
				{
					"inputs": [],
					"name": "WITHDRAWAL_FEE_BPS",
					"outputs": [
						{
							"internalType": "uint256",
							"name": "",
							"type": "uint256"
						}
					],
					"stateMutability": "view",
					"type": "function"
				},
				{
					"inputs": [
						{
							"internalType": "uint256",
							"name": "_apy",
							"type": "uint256"
						},
						{
							"internalType": "address",
							"name": "_rewardToken",
							"type": "address"
						}
					],
					"name": "addPool",
					"outputs": [],
					"stateMutability": "nonpayable",
					"type": "function"
				},
				{
					"inputs": [
						{
							"internalType": "uint256",
							"name": "_poolId",
							"type": "uint256"
						}
					],
					"name": "adjustAPY",
					"outputs": [],
					"stateMutability": "nonpayable",
					"type": "function"
				},
				{
					"inputs": [
						{
							"internalType": "uint256",
							"name": "_poolId",
							"type": "uint256"
						},
						{
							"internalType": "address",
							"name": "_user",
							"type": "address"
						}
					],
					"name": "calculateReward",
					"outputs": [
						{
							"internalType": "uint256",
							"name": "",
							"type": "uint256"
						}
					],
					"stateMutability": "view",
					"type": "function"
				},
				{
					"inputs": [
						{
							"internalType": "uint256",
							"name": "_poolId",
							"type": "uint256"
						}
					],
					"name": "claimRewards",
					"outputs": [],
					"stateMutability": "nonpayable",
					"type": "function"
				},
				{
					"inputs": [],
					"name": "feeWallet",
					"outputs": [
						{
							"internalType": "address",
							"name": "",
							"type": "address"
						}
					],
					"stateMutability": "view",
					"type": "function"
				},
				{
					"inputs": [],
					"name": "getPoolCount",
					"outputs": [
						{
							"internalType": "uint256",
							"name": "",
							"type": "uint256"
						}
					],
					"stateMutability": "view",
					"type": "function"
				},
				{
					"inputs": [
						{
							"internalType": "uint256",
							"name": "_poolId",
							"type": "uint256"
						}
					],
					"name": "getPoolInfo",
					"outputs": [
						{
							"internalType": "uint256",
							"name": "",
							"type": "uint256"
						},
						{
							"internalType": "address",
							"name": "",
							"type": "address"
						},
						{
							"internalType": "uint256",
							"name": "",
							"type": "uint256"
						}
					],
					"stateMutability": "view",
					"type": "function"
				},
				{
					"inputs": [
						{
							"internalType": "uint256",
							"name": "_poolId",
							"type": "uint256"
						},
						{
							"internalType": "address",
							"name": "_user",
							"type": "address"
						}
					],
					"name": "getUserLastStakedTime",
					"outputs": [
						{
							"internalType": "uint256",
							"name": "",
							"type": "uint256"
						}
					],
					"stateMutability": "view",
					"type": "function"
				},
				{
					"inputs": [
						{
							"internalType": "uint256",
							"name": "_poolId",
							"type": "uint256"
						},
						{
							"internalType": "address",
							"name": "_user",
							"type": "address"
						}
					],
					"name": "getUserStakedAmount",
					"outputs": [
						{
							"internalType": "uint256",
							"name": "",
							"type": "uint256"
						}
					],
					"stateMutability": "view",
					"type": "function"
				},
				{
					"inputs": [],
					"name": "owner",
					"outputs": [
						{
							"internalType": "address",
							"name": "",
							"type": "address"
						}
					],
					"stateMutability": "view",
					"type": "function"
				},
				{
					"inputs": [],
					"name": "poolCount",
					"outputs": [
						{
							"internalType": "uint256",
							"name": "",
							"type": "uint256"
						}
					],
					"stateMutability": "view",
					"type": "function"
				},
				{
					"inputs": [
						{
							"internalType": "uint256",
							"name": "",
							"type": "uint256"
						}
					],
					"name": "pools",
					"outputs": [
						{
							"internalType": "uint256",
							"name": "apy",
							"type": "uint256"
						},
						{
							"internalType": "uint256",
							"name": "totalStaked",
							"type": "uint256"
						},
						{
							"internalType": "contract IERC20",
							"name": "rewardToken",
							"type": "address"
						}
					],
					"stateMutability": "view",
					"type": "function"
				},
				{
					"inputs": [],
					"name": "renounceOwnership",
					"outputs": [],
					"stateMutability": "nonpayable",
					"type": "function"
				},
				{
					"inputs": [
						{
							"internalType": "address",
							"name": "_feeWallet",
							"type": "address"
						}
					],
					"name": "setFeeWallet",
					"outputs": [],
					"stateMutability": "nonpayable",
					"type": "function"
				},
				{
					"inputs": [
						{
							"internalType": "uint256",
							"name": "_poolId",
							"type": "uint256"
						},
						{
							"internalType": "uint256",
							"name": "_amount",
							"type": "uint256"
						}
					],
					"name": "stake",
					"outputs": [],
					"stateMutability": "nonpayable",
					"type": "function"
				},
				{
					"inputs": [],
					"name": "stakingToken",
					"outputs": [
						{
							"internalType": "contract IERC20",
							"name": "",
							"type": "address"
						}
					],
					"stateMutability": "view",
					"type": "function"
				},
				{
					"inputs": [
						{
							"internalType": "address",
							"name": "newOwner",
							"type": "address"
						}
					],
					"name": "transferOwnership",
					"outputs": [],
					"stateMutability": "nonpayable",
					"type": "function"
				},
				{
					"inputs": [
						{
							"internalType": "uint256",
							"name": "_poolId",
							"type": "uint256"
						},
						{
							"internalType": "uint256",
							"name": "_amount",
							"type": "uint256"
						}
					],
					"name": "unstake",
					"outputs": [],
					"stateMutability": "nonpayable",
					"type": "function"
				}
			],
			"devdoc": {
				"errors": {
					"OwnableInvalidOwner(address)": [
						{
							"details": "The owner is not a valid owner account. (eg. `address(0)`)"
						}
					],
					"OwnableUnauthorizedAccount(address)": [
						{
							"details": "The caller account is not authorized to perform an operation."
						}
					]
				},
				"kind": "dev",
				"methods": {
					"owner()": {
						"details": "Returns the address of the current owner."
					},
					"renounceOwnership()": {
						"details": "Leaves the contract without owner. It will not be possible to call `onlyOwner` functions. Can only be called by the current owner. NOTE: Renouncing ownership will leave the contract without an owner, thereby disabling any functionality that is only available to the owner."
					},
					"transferOwnership(address)": {
						"details": "Transfers ownership of the contract to a new account (`newOwner`). Can only be called by the current owner."
					}
				},
				"version": 1
			},
			"evm": {
				"assembly": "    /* \"contracts/Staking.sol\":244:6632  contract StakingContract is Ownable, ReentrancyGuard {... */\n  mstore(0x40, 0x80)\n    /* \"contracts/Staking.sol\":1713:1847  constructor(address _stakingToken) Ownable(msg.sender) {... */\n  callvalue\n  dup1\n  iszero\n  tag_1\n  jumpi\n  0x00\n  dup1\n  revert\ntag_1:\n  pop\n  mload(0x40)\n  sub(codesize, bytecodeSize)\n  dup1\n  bytecodeSize\n  dup4\n  codecopy\n  dup2\n  add\n  0x40\n  dup2\n  swap1\n  mstore\n  tag_2\n  swap2\n  tag_3\n  jump\t// in\ntag_2:\n    /* \"contracts/Staking.sol\":1756:1766  msg.sender */\n  caller\n  dup1\n    /* \"@openzeppelin/contracts/access/Ownable.sol\":1269:1364  if (initialOwner == address(0)) {... */\n  tag_8\n  jumpi\n    /* \"@openzeppelin/contracts/access/Ownable.sol\":1322:1353  OwnableInvalidOwner(address(0)) */\n  mload(0x40)\n  shl(0xe0, 0x1e4fbdf7)\n  dup2\n  mstore\n    /* \"@openzeppelin/contracts/access/Ownable.sol\":1350:1351  0 */\n  0x00\n    /* \"@openzeppelin/contracts/access/Ownable.sol\":1322:1353  OwnableInvalidOwner(address(0)) */\n  0x04\n  dup3\n  add\n    /* \"#utility.yul\":455:506   */\n  mstore\n    /* \"#utility.yul\":428:446   */\n  0x24\n  add\n    /* \"@openzeppelin/contracts/access/Ownable.sol\":1322:1353  OwnableInvalidOwner(address(0)) */\n  mload(0x40)\n  dup1\n  swap2\n  sub\n  swap1\n  revert\n    /* \"@openzeppelin/contracts/access/Ownable.sol\":1269:1364  if (initialOwner == address(0)) {... */\ntag_8:\n    /* \"@openzeppelin/contracts/access/Ownable.sol\":1373:1405  _transferOwnership(initialOwner) */\n  tag_11\n    /* \"@openzeppelin/contracts/access/Ownable.sol\":1392:1404  initialOwner */\n  dup2\n    /* \"@openzeppelin/contracts/access/Ownable.sol\":1373:1391  _transferOwnership */\n  tag_12\n    /* \"@openzeppelin/contracts/access/Ownable.sol\":1373:1405  _transferOwnership(initialOwner) */\n  jump\t// in\ntag_11:\n  pop\n    /* \"@openzeppelin/contracts/security/ReentrancyGuard.sol\":1716:1717  1 */\n  0x01\n    /* \"@openzeppelin/contracts/security/ReentrancyGuard.sol\":1821:1843  _status = _NOT_ENTERED */\n  dup1\n  sstore\n    /* \"contracts/Staking.sol\":1779:1791  stakingToken */\n  0x02\n    /* \"contracts/Staking.sol\":1779:1815  stakingToken = IERC20(_stakingToken) */\n  dup1\n  sload\n  not(sub(shl(0xa0, 0x01), 0x01))\n  and\n  sub(shl(0xa0, 0x01), 0x01)\n  swap3\n  swap1\n  swap3\n  and\n  swap2\n  swap1\n  swap2\n  or\n  swap1\n  sstore\n  0x00\n    /* \"contracts/Staking.sol\":1826:1835  poolCount */\n  0x05\n    /* \"contracts/Staking.sol\":1826:1839  poolCount = 0 */\n  sstore\n    /* \"contracts/Staking.sol\":244:6632  contract StakingContract is Ownable, ReentrancyGuard {... */\n  jump(tag_17)\n    /* \"@openzeppelin/contracts/access/Ownable.sol\":2912:3099  function _transferOwnership(address newOwner) internal virtual {... */\ntag_12:\n    /* \"@openzeppelin/contracts/access/Ownable.sol\":2985:3001  address oldOwner */\n  0x00\n    /* \"@openzeppelin/contracts/access/Ownable.sol\":3004:3010  _owner */\n  dup1\n  sload\n  sub(shl(0xa0, 0x01), 0x01)\n    /* \"@openzeppelin/contracts/access/Ownable.sol\":3020:3037  _owner = newOwner */\n  dup4\n  dup2\n  and\n  not(sub(shl(0xa0, 0x01), 0x01))\n  dup4\n  and\n  dup2\n  or\n  dup5\n  sstore\n    /* \"@openzeppelin/contracts/access/Ownable.sol\":3052:3092  OwnershipTransferred(oldOwner, newOwner) */\n  mload(0x40)\n    /* \"@openzeppelin/contracts/access/Ownable.sol\":3004:3010  _owner */\n  swap2\n  swap1\n  swap3\n  and\n  swap3\n  dup4\n  swap2\n    /* \"@openzeppelin/contracts/access/Ownable.sol\":3052:3092  OwnershipTransferred(oldOwner, newOwner) */\n  0x8be0079c531659141344cd1fd0a4f28419497f9722a3daafe3b4186f6b6457e0\n  swap2\n    /* \"@openzeppelin/contracts/access/Ownable.sol\":2985:3001  address oldOwner */\n  swap1\n    /* \"@openzeppelin/contracts/access/Ownable.sol\":3052:3092  OwnershipTransferred(oldOwner, newOwner) */\n  log3\n    /* \"@openzeppelin/contracts/access/Ownable.sol\":2975:3099  {... */\n  pop\n    /* \"@openzeppelin/contracts/access/Ownable.sol\":2912:3099  function _transferOwnership(address newOwner) internal virtual {... */\n  pop\n  jump\t// out\n    /* \"#utility.yul\":14:304   */\ntag_3:\n    /* \"#utility.yul\":84:90   */\n  0x00\n    /* \"#utility.yul\":137:139   */\n  0x20\n    /* \"#utility.yul\":125:134   */\n  dup3\n    /* \"#utility.yul\":116:123   */\n  dup5\n    /* \"#utility.yul\":112:135   */\n  sub\n    /* \"#utility.yul\":108:140   */\n  slt\n    /* \"#utility.yul\":105:157   */\n  iszero\n  tag_19\n  jumpi\n    /* \"#utility.yul\":153:154   */\n  0x00\n    /* \"#utility.yul\":150:151   */\n  dup1\n    /* \"#utility.yul\":143:155   */\n  revert\n    /* \"#utility.yul\":105:157   */\ntag_19:\n    /* \"#utility.yul\":179:195   */\n  dup2\n  mload\n  sub(shl(0xa0, 0x01), 0x01)\n    /* \"#utility.yul\":224:255   */\n  dup2\n  and\n    /* \"#utility.yul\":214:256   */\n  dup2\n  eq\n    /* \"#utility.yul\":204:274   */\n  tag_20\n  jumpi\n    /* \"#utility.yul\":270:271   */\n  0x00\n    /* \"#utility.yul\":267:268   */\n  dup1\n    /* \"#utility.yul\":260:272   */\n  revert\n    /* \"#utility.yul\":204:274   */\ntag_20:\n    /* \"#utility.yul\":293:298   */\n  swap4\n    /* \"#utility.yul\":14:304   */\n  swap3\n  pop\n  pop\n  pop\n  jump\t// out\n    /* \"#utility.yul\":309:512   */\ntag_17:\n    /* \"contracts/Staking.sol\":244:6632  contract StakingContract is Ownable, ReentrancyGuard {... */\n  dataSize(sub_0)\n  dup1\n  dataOffset(sub_0)\n  0x00\n  codecopy\n  0x00\n  return\nstop\n\nsub_0: assembly {\n        /* \"contracts/Staking.sol\":244:6632  contract StakingContract is Ownable, ReentrancyGuard {... */\n      mstore(0x40, 0x80)\n      callvalue\n      dup1\n      iszero\n      tag_1\n      jumpi\n      0x00\n      dup1\n      revert\n    tag_1:\n      pop\n      jumpi(tag_2, lt(calldatasize, 0x04))\n      shr(0xe0, calldataload(0x00))\n      dup1\n      0x8da5cb5b\n      gt\n      tag_24\n      jumpi\n      dup1\n      0xac4afa38\n      gt\n      tag_25\n      jumpi\n      dup1\n      0xac4afa38\n      eq\n      tag_18\n      jumpi\n      dup1\n      0xb684edcf\n      eq\n      tag_19\n      jumpi\n      dup1\n      0xd13d8258\n      eq\n      tag_20\n      jumpi\n      dup1\n      0xf25f4b56\n      eq\n      tag_21\n      jumpi\n      dup1\n      0xf2fde38b\n      eq\n      tag_22\n      jumpi\n      dup1\n      0xf525cb68\n      eq\n      tag_23\n      jumpi\n      0x00\n      dup1\n      revert\n    tag_25:\n      dup1\n      0x8da5cb5b\n      eq\n      tag_13\n      jumpi\n      dup1\n      0x8eec5d70\n      eq\n      tag_14\n      jumpi\n      dup1\n      0x90d49b9d\n      eq\n      tag_15\n      jumpi\n      dup1\n      0x9e2c8a5b\n      eq\n      tag_16\n      jumpi\n      dup1\n      0xa18f07a0\n      eq\n      tag_17\n      jumpi\n      0x00\n      dup1\n      revert\n    tag_24:\n      dup1\n      0x6bbf758d\n      gt\n      tag_26\n      jumpi\n      dup1\n      0x6bbf758d\n      eq\n      tag_8\n      jumpi\n      dup1\n      0x6e99d52f\n      eq\n      tag_9\n      jumpi\n      dup1\n      0x715018a6\n      eq\n      tag_10\n      jumpi\n      dup1\n      0x72f702f3\n      eq\n      tag_11\n      jumpi\n      dup1\n      0x7b0472f0\n      eq\n      tag_12\n      jumpi\n      0x00\n      dup1\n      revert\n    tag_26:\n      dup1\n      0x0962ef79\n      eq\n      tag_3\n      jumpi\n      dup1\n      0x2f380b35\n      eq\n      tag_4\n      jumpi\n      dup1\n      0x33ba8882\n      eq\n      tag_5\n      jumpi\n      dup1\n      0x3a4ae669\n      eq\n      tag_6\n      jumpi\n      dup1\n      0x4d333a21\n      eq\n      tag_7\n      jumpi\n    tag_2:\n      0x00\n      dup1\n      revert\n        /* \"contracts/Staking.sol\":4829:5338  function claimRewards(uint256 _poolId) external nonReentrant {... */\n    tag_3:\n      tag_27\n      tag_28\n      calldatasize\n      0x04\n      tag_29\n      jump\t// in\n    tag_28:\n      tag_30\n      jump\t// in\n    tag_27:\n      stop\n        /* \"contracts/Staking.sol\":5803:6079  function getPoolInfo(uint256 _poolId) external view returns (uint256, address, uint256) {... */\n    tag_4:\n      tag_31\n      tag_32\n      calldatasize\n      0x04\n      tag_29\n      jump\t// in\n    tag_32:\n      tag_33\n      jump\t// in\n    tag_31:\n      0x40\n      dup1\n      mload\n        /* \"#utility.yul\":447:472   */\n      swap4\n      dup5\n      mstore\n      sub(shl(0xa0, 0x01), 0x01)\n        /* \"#utility.yul\":508:540   */\n      swap1\n      swap3\n      and\n        /* \"#utility.yul\":503:505   */\n      0x20\n        /* \"#utility.yul\":488:506   */\n      dup5\n      add\n        /* \"#utility.yul\":481:541   */\n      mstore\n        /* \"#utility.yul\":557:575   */\n      swap1\n      dup3\n      add\n        /* \"#utility.yul\":550:584   */\n      mstore\n        /* \"#utility.yul\":435:437   */\n      0x60\n        /* \"#utility.yul\":420:438   */\n      add\n        /* \"contracts/Staking.sol\":5803:6079  function getPoolInfo(uint256 _poolId) external view returns (uint256, address, uint256) {... */\n    tag_34:\n      mload(0x40)\n      dup1\n      swap2\n      sub\n      swap1\n      return\n        /* \"contracts/Staking.sol\":2236:2591  function addPool(uint256 _apy, address _rewardToken) external onlyOwner validAddress(_rewardToken) {... */\n    tag_5:\n      tag_27\n      tag_37\n      calldatasize\n      0x04\n      tag_38\n      jump\t// in\n    tag_37:\n      tag_39\n      jump\t// in\n        /* \"contracts/Staking.sol\":670:718  uint256 public constant WITHDRAWAL_FEE_BPS = 500 */\n    tag_6:\n      tag_40\n        /* \"contracts/Staking.sol\":715:718  500 */\n      0x01f4\n        /* \"contracts/Staking.sol\":670:718  uint256 public constant WITHDRAWAL_FEE_BPS = 500 */\n      dup2\n      jump\n    tag_40:\n      mload(0x40)\n        /* \"#utility.yul\":1224:1249   */\n      swap1\n      dup2\n      mstore\n        /* \"#utility.yul\":1212:1214   */\n      0x20\n        /* \"#utility.yul\":1197:1215   */\n      add\n        /* \"contracts/Staking.sol\":670:718  uint256 public constant WITHDRAWAL_FEE_BPS = 500 */\n      tag_34\n        /* \"#utility.yul\":1078:1255   */\n      jump\n        /* \"contracts/Staking.sol\":5346:5795  function adjustAPY(uint256 _poolId) external onlyOwner {... */\n    tag_7:\n      tag_27\n      tag_45\n      calldatasize\n      0x04\n      tag_29\n      jump\t// in\n    tag_45:\n      tag_46\n      jump\t// in\n        /* \"contracts/Staking.sol\":612:657  uint256 public constant DEPOSIT_FEE_BPS = 200 */\n    tag_8:\n      tag_40\n        /* \"contracts/Staking.sol\":654:657  200 */\n      0xc8\n        /* \"contracts/Staking.sol\":612:657  uint256 public constant DEPOSIT_FEE_BPS = 200 */\n      dup2\n      jump\n        /* \"contracts/Staking.sol\":420:469  uint256 public constant COOLDOWN_PERIOD = 4 hours */\n    tag_9:\n      tag_40\n        /* \"contracts/Staking.sol\":462:469  4 hours */\n      0x3840\n        /* \"contracts/Staking.sol\":420:469  uint256 public constant COOLDOWN_PERIOD = 4 hours */\n      dup2\n      jump\n        /* \"@openzeppelin/contracts/access/Ownable.sol\":2293:2394  function renounceOwnership() public virtual onlyOwner {... */\n    tag_10:\n      tag_27\n      tag_54\n      jump\t// in\n        /* \"contracts/Staking.sol\":347:373  IERC20 public stakingToken */\n    tag_11:\n      sload(0x02)\n      tag_55\n      swap1\n      sub(shl(0xa0, 0x01), 0x01)\n      and\n      dup2\n      jump\n    tag_55:\n      mload(0x40)\n      sub(shl(0xa0, 0x01), 0x01)\n        /* \"#utility.yul\":1438:1470   */\n      swap1\n      swap2\n      and\n        /* \"#utility.yul\":1420:1471   */\n      dup2\n      mstore\n        /* \"#utility.yul\":1408:1410   */\n      0x20\n        /* \"#utility.yul\":1393:1411   */\n      add\n        /* \"contracts/Staking.sol\":347:373  IERC20 public stakingToken */\n      tag_34\n        /* \"#utility.yul\":1260:1477   */\n      jump\n        /* \"contracts/Staking.sol\":2599:3408  function stake(uint256 _poolId, uint256 _amount) external nonReentrant feeWalletSet {... */\n    tag_12:\n      tag_27\n      tag_60\n      calldatasize\n      0x04\n      tag_61\n      jump\t// in\n    tag_60:\n      tag_62\n      jump\t// in\n        /* \"@openzeppelin/contracts/access/Ownable.sol\":1638:1723  function owner() public view virtual returns (address) {... */\n    tag_13:\n        /* \"@openzeppelin/contracts/access/Ownable.sol\":1684:1691  address */\n      0x00\n        /* \"@openzeppelin/contracts/access/Ownable.sol\":1710:1716  _owner */\n      sload\n      sub(shl(0xa0, 0x01), 0x01)\n      and\n        /* \"@openzeppelin/contracts/access/Ownable.sol\":1638:1723  function owner() public view virtual returns (address) {... */\n      jump(tag_55)\n        /* \"contracts/Staking.sol\":6538:6629  function getPoolCount() external view returns (uint256) {... */\n    tag_14:\n        /* \"contracts/Staking.sol\":6612:6621  poolCount */\n      sload(0x05)\n        /* \"contracts/Staking.sol\":6538:6629  function getPoolCount() external view returns (uint256) {... */\n      jump(tag_40)\n        /* \"contracts/Staking.sol\":2101:2228  function setFeeWallet(address _feeWallet) external onlyOwner validAddress(_feeWallet) {... */\n    tag_15:\n      tag_27\n      tag_71\n      calldatasize\n      0x04\n      tag_72\n      jump\t// in\n    tag_71:\n      tag_73\n      jump\t// in\n        /* \"contracts/Staking.sol\":3416:4381  function unstake(uint256 _poolId, uint256 _amount) external nonReentrant feeWalletSet {... */\n    tag_16:\n      tag_27\n      tag_75\n      calldatasize\n      0x04\n      tag_61\n      jump\t// in\n    tag_75:\n      tag_76\n      jump\t// in\n        /* \"contracts/Staking.sol\":4389:4821  function calculateReward(uint256 _poolId, address _user) public view returns (uint256) {... */\n    tag_17:\n      tag_40\n      tag_78\n      calldatasize\n      0x04\n      tag_38\n      jump\t// in\n    tag_78:\n      tag_79\n      jump\t// in\n        /* \"contracts/Staking.sol\":1171:1208  mapping(uint256 => Pool) public pools */\n    tag_18:\n      tag_81\n      tag_82\n      calldatasize\n      0x04\n      tag_29\n      jump\t// in\n    tag_82:\n      mstore(0x20, 0x04)\n      0x00\n      swap1\n      dup2\n      mstore\n      0x40\n      swap1\n      keccak256\n      dup1\n      sload\n      0x01\n      dup3\n      add\n      sload\n      0x02\n      swap1\n      swap3\n      add\n      sload\n      swap1\n      swap2\n      swap1\n      sub(shl(0xa0, 0x01), 0x01)\n      and\n      dup4\n      jump\n    tag_81:\n      0x40\n      dup1\n      mload\n        /* \"#utility.yul\":2448:2473   */\n      swap4\n      dup5\n      mstore\n        /* \"#utility.yul\":2504:2506   */\n      0x20\n        /* \"#utility.yul\":2489:2507   */\n      dup5\n      add\n        /* \"#utility.yul\":2482:2516   */\n      swap3\n      swap1\n      swap3\n      mstore\n      sub(shl(0xa0, 0x01), 0x01)\n        /* \"#utility.yul\":2552:2584   */\n      and\n        /* \"#utility.yul\":2532:2550   */\n      swap1\n      dup3\n      add\n        /* \"#utility.yul\":2525:2585   */\n      mstore\n        /* \"#utility.yul\":2436:2438   */\n      0x60\n        /* \"#utility.yul\":2421:2439   */\n      add\n        /* \"contracts/Staking.sol\":1171:1208  mapping(uint256 => Pool) public pools */\n      tag_34\n        /* \"#utility.yul\":2232:2591   */\n      jump\n        /* \"contracts/Staking.sol\":6311:6530  function getUserLastStakedTime(uint256 _poolId, address _user) external view returns (uint256) {... */\n    tag_19:\n      tag_40\n      tag_87\n      calldatasize\n      0x04\n      tag_38\n      jump\t// in\n    tag_87:\n      tag_88\n      jump\t// in\n        /* \"contracts/Staking.sol\":6087:6303  function getUserStakedAmount(uint256 _poolId, address _user) external view returns (uint256) {... */\n    tag_20:\n      tag_40\n      tag_91\n      calldatasize\n      0x04\n      tag_38\n      jump\t// in\n    tag_91:\n      tag_92\n      jump\t// in\n        /* \"contracts/Staking.sol\":521:545  address public feeWallet */\n    tag_21:\n      sload(0x03)\n      tag_55\n      swap1\n      sub(shl(0xa0, 0x01), 0x01)\n      and\n      dup2\n      jump\n        /* \"@openzeppelin/contracts/access/Ownable.sol\":2543:2758  function transferOwnership(address newOwner) public virtual onlyOwner {... */\n    tag_22:\n      tag_27\n      tag_98\n      calldatasize\n      0x04\n      tag_72\n      jump\t// in\n    tag_98:\n      tag_99\n      jump\t// in\n        /* \"contracts/Staking.sol\":1248:1272  uint256 public poolCount */\n    tag_23:\n      tag_40\n      sload(0x05)\n      dup2\n      jump\n        /* \"contracts/Staking.sol\":4829:5338  function claimRewards(uint256 _poolId) external nonReentrant {... */\n    tag_30:\n        /* \"@openzeppelin/contracts/security/ReentrancyGuard.sol\":2261:2282  _nonReentrantBefore() */\n      tag_104\n        /* \"@openzeppelin/contracts/security/ReentrancyGuard.sol\":2261:2280  _nonReentrantBefore */\n      tag_105\n        /* \"@openzeppelin/contracts/security/ReentrancyGuard.sol\":2261:2282  _nonReentrantBefore() */\n      jump\t// in\n    tag_104:\n        /* \"contracts/Staking.sol\":4919:4928  poolCount */\n      sload(0x05)\n        /* \"contracts/Staking.sol\":4909:4916  _poolId */\n      dup2\n        /* \"contracts/Staking.sol\":4909:4928  _poolId < poolCount */\n      lt\n        /* \"contracts/Staking.sol\":4901:4952  require(_poolId < poolCount, \"Pool does not exist\") */\n      tag_107\n      jumpi\n      mload(0x40)\n      shl(0xe5, 0x461bcd)\n      dup2\n      mstore\n      0x04\n      add\n      tag_108\n      swap1\n      tag_109\n      jump\t// in\n    tag_108:\n      mload(0x40)\n      dup1\n      swap2\n      sub\n      swap1\n      revert\n    tag_107:\n        /* \"contracts/Staking.sol\":4965:4982  Pool storage pool */\n      0x00\n        /* \"contracts/Staking.sol\":4985:4999  pools[_poolId] */\n      dup2\n      dup2\n      mstore\n        /* \"contracts/Staking.sol\":4985:4990  pools */\n      0x04\n        /* \"contracts/Staking.sol\":4985:4999  pools[_poolId] */\n      0x20\n      mstore\n      0x40\n      dup2\n      keccak256\n      swap1\n        /* \"contracts/Staking.sol\":5027:5063  calculateReward(_poolId, msg.sender) */\n      tag_110\n        /* \"contracts/Staking.sol\":4991:4998  _poolId */\n      dup4\n        /* \"contracts/Staking.sol\":5052:5062  msg.sender */\n      caller\n        /* \"contracts/Staking.sol\":5027:5042  calculateReward */\n      tag_79\n        /* \"contracts/Staking.sol\":5027:5063  calculateReward(_poolId, msg.sender) */\n      jump\t// in\n    tag_110:\n        /* \"contracts/Staking.sol\":5010:5063  uint256 reward = calculateReward(_poolId, msg.sender) */\n      swap1\n      pop\n        /* \"contracts/Staking.sol\":5091:5092  0 */\n      0x00\n        /* \"contracts/Staking.sol\":5082:5088  reward */\n      dup2\n        /* \"contracts/Staking.sol\":5082:5092  reward > 0 */\n      gt\n        /* \"contracts/Staking.sol\":5074:5117  require(reward > 0, \"No rewards available\") */\n      tag_111\n      jumpi\n      mload(0x40)\n      shl(0xe5, 0x461bcd)\n      dup2\n      mstore\n        /* \"#utility.yul\":3146:3148   */\n      0x20\n        /* \"contracts/Staking.sol\":5074:5117  require(reward > 0, \"No rewards available\") */\n      0x04\n      dup3\n      add\n        /* \"#utility.yul\":3128:3149   */\n      mstore\n        /* \"#utility.yul\":3185:3187   */\n      0x14\n        /* \"#utility.yul\":3165:3183   */\n      0x24\n      dup3\n      add\n        /* \"#utility.yul\":3158:3188   */\n      mstore\n      shl(0x60, 0x4e6f207265776172647320617661696c61626c65)\n        /* \"#utility.yul\":3204:3222   */\n      0x44\n      dup3\n      add\n        /* \"#utility.yul\":3197:3247   */\n      mstore\n        /* \"#utility.yul\":3264:3282   */\n      0x64\n      add\n        /* \"contracts/Staking.sol\":5074:5117  require(reward > 0, \"No rewards available\") */\n      tag_108\n        /* \"#utility.yul\":2944:3288   */\n      jump\n        /* \"contracts/Staking.sol\":5074:5117  require(reward > 0, \"No rewards available\") */\n    tag_111:\n        /* \"contracts/Staking.sol\":5150:5160  msg.sender */\n      caller\n        /* \"contracts/Staking.sol\":5130:5161  pool.lastStakedTime[msg.sender] */\n      0x00\n      dup2\n      dup2\n      mstore\n        /* \"contracts/Staking.sol\":5130:5149  pool.lastStakedTime */\n      0x04\n      dup5\n      dup2\n      add\n        /* \"contracts/Staking.sol\":5130:5161  pool.lastStakedTime[msg.sender] */\n      0x20\n      mstore\n      0x40\n      swap2\n      dup3\n      swap1\n      keccak256\n        /* \"contracts/Staking.sol\":5164:5179  block.timestamp */\n      timestamp\n        /* \"contracts/Staking.sol\":5130:5179  pool.lastStakedTime[msg.sender] = block.timestamp */\n      swap1\n      sstore\n        /* \"contracts/Staking.sol\":5198:5214  pool.rewardToken */\n      0x02\n      dup6\n      add\n      sload\n        /* \"contracts/Staking.sol\":5198:5243  pool.rewardToken.transfer(msg.sender, reward) */\n      swap2\n      mload\n      shl(0xe0, 0xa9059cbb)\n      dup2\n      mstore\n      swap1\n      dup2\n      add\n        /* \"#utility.yul\":3467:3518   */\n      swap3\n      swap1\n      swap3\n      mstore\n        /* \"#utility.yul\":3534:3552   */\n      0x24\n      dup3\n      add\n        /* \"#utility.yul\":3527:3561   */\n      dup4\n      swap1\n      mstore\n      sub(shl(0xa0, 0x01), 0x01)\n        /* \"contracts/Staking.sol\":5198:5214  pool.rewardToken */\n      and\n      swap1\n        /* \"contracts/Staking.sol\":5198:5223  pool.rewardToken.transfer */\n      0xa9059cbb\n      swap1\n        /* \"#utility.yul\":3440:3458   */\n      0x44\n      add\n        /* \"contracts/Staking.sol\":5198:5243  pool.rewardToken.transfer(msg.sender, reward) */\n      0x20\n      mload(0x40)\n      dup1\n      dup4\n      sub\n      dup2\n      0x00\n      dup8\n      gas\n      call\n      iszero\n      dup1\n      iszero\n      tag_117\n      jumpi\n      returndatasize\n      0x00\n      dup1\n      returndatacopy\n      revert(0x00, returndatasize)\n    tag_117:\n      pop\n      pop\n      pop\n      pop\n      mload(0x40)\n      returndatasize\n      not(0x1f)\n      0x1f\n      dup3\n      add\n      and\n      dup3\n      add\n      dup1\n      0x40\n      mstore\n      pop\n      dup2\n      add\n      swap1\n      tag_118\n      swap2\n      swap1\n      tag_119\n      jump\t// in\n    tag_118:\n        /* \"contracts/Staking.sol\":5190:5270  require(pool.rewardToken.transfer(msg.sender, reward), \"Reward transfer failed\") */\n      tag_120\n      jumpi\n      mload(0x40)\n      shl(0xe5, 0x461bcd)\n      dup2\n      mstore\n        /* \"#utility.yul\":4056:4058   */\n      0x20\n        /* \"contracts/Staking.sol\":5190:5270  require(pool.rewardToken.transfer(msg.sender, reward), \"Reward transfer failed\") */\n      0x04\n      dup3\n      add\n        /* \"#utility.yul\":4038:4059   */\n      mstore\n        /* \"#utility.yul\":4095:4097   */\n      0x16\n        /* \"#utility.yul\":4075:4093   */\n      0x24\n      dup3\n      add\n        /* \"#utility.yul\":4068:4098   */\n      mstore\n      shl(0x52, 0x14995dd85c99081d1c985b9cd9995c8819985a5b1959)\n        /* \"#utility.yul\":4114:4132   */\n      0x44\n      dup3\n      add\n        /* \"#utility.yul\":4107:4159   */\n      mstore\n        /* \"#utility.yul\":4176:4194   */\n      0x64\n      add\n        /* \"contracts/Staking.sol\":5190:5270  require(pool.rewardToken.transfer(msg.sender, reward), \"Reward transfer failed\") */\n      tag_108\n        /* \"#utility.yul\":3854:4200   */\n      jump\n        /* \"contracts/Staking.sol\":5190:5270  require(pool.rewardToken.transfer(msg.sender, reward), \"Reward transfer failed\") */\n    tag_120:\n        /* \"contracts/Staking.sol\":5288:5330  RewardClaimed(msg.sender, _poolId, reward) */\n      0x40\n      dup1\n      mload\n        /* \"#utility.yul\":4379:4404   */\n      dup5\n      dup2\n      mstore\n        /* \"#utility.yul\":4435:4437   */\n      0x20\n        /* \"#utility.yul\":4420:4438   */\n      dup2\n      add\n        /* \"#utility.yul\":4413:4447   */\n      dup4\n      swap1\n      mstore\n        /* \"contracts/Staking.sol\":5302:5312  msg.sender */\n      caller\n      swap2\n        /* \"contracts/Staking.sol\":5288:5330  RewardClaimed(msg.sender, _poolId, reward) */\n      0xf01da32686223933d8a18a391060918c7f11a3648639edd87ae013e2e2731743\n      swap2\n        /* \"#utility.yul\":4352:4370   */\n      add\n        /* \"contracts/Staking.sol\":5288:5330  RewardClaimed(msg.sender, _poolId, reward) */\n      mload(0x40)\n      dup1\n      swap2\n      sub\n      swap1\n      log2\n        /* \"contracts/Staking.sol\":4890:5338  {... */\n      pop\n      pop\n        /* \"@openzeppelin/contracts/security/ReentrancyGuard.sol\":2303:2323  _nonReentrantAfter() */\n      tag_125\n        /* \"@openzeppelin/contracts/security/ReentrancyGuard.sol\":1716:1717  1 */\n      0x01\n        /* \"@openzeppelin/contracts/security/ReentrancyGuard.sol\":2809:2831  _status = _NOT_ENTERED */\n      dup1\n      sstore\n        /* \"@openzeppelin/contracts/security/ReentrancyGuard.sol\":2629:2838  function _nonReentrantAfter() private {... */\n      jump\n        /* \"@openzeppelin/contracts/security/ReentrancyGuard.sol\":2303:2323  _nonReentrantAfter() */\n    tag_125:\n        /* \"contracts/Staking.sol\":4829:5338  function claimRewards(uint256 _poolId) external nonReentrant {... */\n      pop\n      jump\t// out\n        /* \"contracts/Staking.sol\":5803:6079  function getPoolInfo(uint256 _poolId) external view returns (uint256, address, uint256) {... */\n    tag_33:\n        /* \"contracts/Staking.sol\":5864:5871  uint256 */\n      0x00\n        /* \"contracts/Staking.sol\":5873:5880  address */\n      dup1\n        /* \"contracts/Staking.sol\":5882:5889  uint256 */\n      0x00\n        /* \"contracts/Staking.sol\":5920:5929  poolCount */\n      sload(0x05)\n        /* \"contracts/Staking.sol\":5910:5917  _poolId */\n      dup5\n        /* \"contracts/Staking.sol\":5910:5929  _poolId < poolCount */\n      lt\n        /* \"contracts/Staking.sol\":5902:5953  require(_poolId < poolCount, \"Pool does not exist\") */\n      tag_128\n      jumpi\n      mload(0x40)\n      shl(0xe5, 0x461bcd)\n      dup2\n      mstore\n      0x04\n      add\n      tag_108\n      swap1\n      tag_109\n      jump\t// in\n    tag_128:\n      pop\n      pop\n      pop\n        /* \"contracts/Staking.sol\":5964:5981  Pool storage pool */\n      0x00\n        /* \"contracts/Staking.sol\":5984:5998  pools[_poolId] */\n      swap1\n      dup2\n      mstore\n        /* \"contracts/Staking.sol\":5984:5989  pools */\n      0x04\n        /* \"contracts/Staking.sol\":5984:5998  pools[_poolId] */\n      0x20\n      mstore\n      0x40\n      swap1\n      keccak256\n        /* \"contracts/Staking.sol\":6017:6025  pool.apy */\n      dup1\n      sload\n        /* \"contracts/Staking.sol\":6035:6051  pool.rewardToken */\n      0x02\n      dup3\n      add\n      sload\n      0x01\n        /* \"contracts/Staking.sol\":6054:6070  pool.totalStaked */\n      swap1\n      swap3\n      add\n      sload\n        /* \"contracts/Staking.sol\":6017:6025  pool.apy */\n      swap1\n      swap3\n      sub(shl(0xa0, 0x01), 0x01)\n        /* \"contracts/Staking.sol\":6035:6051  pool.rewardToken */\n      swap1\n      swap3\n      and\n      swap2\n        /* \"contracts/Staking.sol\":5803:6079  function getPoolInfo(uint256 _poolId) external view returns (uint256, address, uint256) {... */\n      jump\t// out\n        /* \"contracts/Staking.sol\":2236:2591  function addPool(uint256 _apy, address _rewardToken) external onlyOwner validAddress(_rewardToken) {... */\n    tag_39:\n        /* \"@openzeppelin/contracts/access/Ownable.sol\":1531:1544  _checkOwner() */\n      tag_131\n        /* \"@openzeppelin/contracts/access/Ownable.sol\":1531:1542  _checkOwner */\n      tag_132\n        /* \"@openzeppelin/contracts/access/Ownable.sol\":1531:1544  _checkOwner() */\n      jump\t// in\n    tag_131:\n        /* \"contracts/Staking.sol\":2321:2333  _rewardToken */\n      dup1\n      sub(shl(0xa0, 0x01), 0x01)\n        /* \"contracts/Staking.sol\":2031:2053  _address != address(0) */\n      dup2\n      and\n        /* \"contracts/Staking.sol\":2023:2073  require(_address != address(0), \"Invalid address\") */\n      tag_134\n      jumpi\n      mload(0x40)\n      shl(0xe5, 0x461bcd)\n      dup2\n      mstore\n        /* \"#utility.yul\":4660:4662   */\n      0x20\n        /* \"contracts/Staking.sol\":2023:2073  require(_address != address(0), \"Invalid address\") */\n      0x04\n      dup3\n      add\n        /* \"#utility.yul\":4642:4663   */\n      mstore\n        /* \"#utility.yul\":4699:4701   */\n      0x0f\n        /* \"#utility.yul\":4679:4697   */\n      0x24\n      dup3\n      add\n        /* \"#utility.yul\":4672:4702   */\n      mstore\n      shl(0x88, 0x496e76616c69642061646472657373)\n        /* \"#utility.yul\":4718:4736   */\n      0x44\n      dup3\n      add\n        /* \"#utility.yul\":4711:4756   */\n      mstore\n        /* \"#utility.yul\":4773:4791   */\n      0x64\n      add\n        /* \"contracts/Staking.sol\":2023:2073  require(_address != address(0), \"Invalid address\") */\n      tag_108\n        /* \"#utility.yul\":4458:4797   */\n      jump\n        /* \"contracts/Staking.sol\":2023:2073  require(_address != address(0), \"Invalid address\") */\n    tag_134:\n        /* \"contracts/Staking.sol\":2375:2384  poolCount */\n      0x05\n      dup1\n      sload\n        /* \"contracts/Staking.sol\":2346:2366  Pool storage newPool */\n      0x00\n        /* \"contracts/Staking.sol\":2369:2385  pools[poolCount] */\n      swap1\n      dup2\n      mstore\n        /* \"contracts/Staking.sol\":2369:2374  pools */\n      0x04\n        /* \"contracts/Staking.sol\":2369:2385  pools[poolCount] */\n      0x20\n      swap1\n      dup2\n      mstore\n      0x40\n      dup1\n      dup4\n      keccak256\n        /* \"contracts/Staking.sol\":2396:2414  newPool.apy = _apy */\n      dup8\n      dup2\n      sstore\n        /* \"contracts/Staking.sol\":2425:2444  newPool.rewardToken */\n      0x02\n      dup2\n      add\n        /* \"contracts/Staking.sol\":2425:2467  newPool.rewardToken = IERC20(_rewardToken) */\n      dup1\n      sload\n      not(sub(shl(0xa0, 0x01), 0x01))\n      and\n      sub(shl(0xa0, 0x01), 0x01)\n      dup10\n      and\n      swap1\n      dup2\n      or\n      swap1\n      swap2\n      sstore\n      0x01\n        /* \"contracts/Staking.sol\":2478:2497  newPool.totalStaked */\n      dup3\n      add\n        /* \"contracts/Staking.sol\":2478:2501  newPool.totalStaked = 0 */\n      swap5\n      swap1\n      swap5\n      sstore\n        /* \"contracts/Staking.sol\":2531:2540  poolCount */\n      swap4\n      sload\n        /* \"contracts/Staking.sol\":2519:2561  PoolCreated(poolCount, _apy, _rewardToken) */\n      dup2\n      mload\n        /* \"#utility.yul\":4976:5001   */\n      dup9\n      dup2\n      mstore\n        /* \"#utility.yul\":5017:5035   */\n      swap3\n      dup4\n      add\n        /* \"#utility.yul\":5010:5070   */\n      swap4\n      swap1\n      swap4\n      mstore\n        /* \"contracts/Staking.sol\":2519:2561  PoolCreated(poolCount, _apy, _rewardToken) */\n      0xae9596825f83aa972e67ed4a3ac74d2eb98b77ee23453868db5dc3b08a0316ca\n      swap2\n        /* \"#utility.yul\":4949:4967   */\n      add\n        /* \"contracts/Staking.sol\":2519:2561  PoolCreated(poolCount, _apy, _rewardToken) */\n      mload(0x40)\n      dup1\n      swap2\n      sub\n      swap1\n      log2\n        /* \"contracts/Staking.sol\":2572:2581  poolCount */\n      0x05\n        /* \"contracts/Staking.sol\":2572:2583  poolCount++ */\n      dup1\n      sload\n      swap1\n        /* \"contracts/Staking.sol\":2572:2581  poolCount */\n      0x00\n        /* \"contracts/Staking.sol\":2572:2583  poolCount++ */\n      tag_140\n      dup4\n      tag_141\n      jump\t// in\n    tag_140:\n      swap2\n      swap1\n      pop\n      sstore\n      pop\n        /* \"contracts/Staking.sol\":2335:2591  {... */\n      pop\n        /* \"@openzeppelin/contracts/access/Ownable.sol\":1554:1555  _ */\n      pop\n        /* \"contracts/Staking.sol\":2236:2591  function addPool(uint256 _apy, address _rewardToken) external onlyOwner validAddress(_rewardToken) {... */\n      pop\n      pop\n      jump\t// out\n        /* \"contracts/Staking.sol\":5346:5795  function adjustAPY(uint256 _poolId) external onlyOwner {... */\n    tag_46:\n        /* \"@openzeppelin/contracts/access/Ownable.sol\":1531:1544  _checkOwner() */\n      tag_143\n        /* \"@openzeppelin/contracts/access/Ownable.sol\":1531:1542  _checkOwner */\n      tag_132\n        /* \"@openzeppelin/contracts/access/Ownable.sol\":1531:1544  _checkOwner() */\n      jump\t// in\n    tag_143:\n        /* \"contracts/Staking.sol\":5430:5439  poolCount */\n      sload(0x05)\n        /* \"contracts/Staking.sol\":5420:5427  _poolId */\n      dup2\n        /* \"contracts/Staking.sol\":5420:5439  _poolId < poolCount */\n      lt\n        /* \"contracts/Staking.sol\":5412:5463  require(_poolId < poolCount, \"Pool does not exist\") */\n      tag_145\n      jumpi\n      mload(0x40)\n      shl(0xe5, 0x461bcd)\n      dup2\n      mstore\n      0x04\n      add\n      tag_108\n      swap1\n      tag_109\n      jump\t// in\n    tag_145:\n        /* \"contracts/Staking.sol\":5476:5493  Pool storage pool */\n      0x00\n        /* \"contracts/Staking.sol\":5496:5510  pools[_poolId] */\n      dup2\n      dup2\n      mstore\n        /* \"contracts/Staking.sol\":5496:5501  pools */\n      0x04\n        /* \"contracts/Staking.sol\":5496:5510  pools[_poolId] */\n      0x20\n      mstore\n      0x40\n      swap1\n      keccak256\n        /* \"contracts/Staking.sol\":5535:5551  pool.totalStaked */\n      0x01\n      dup2\n      add\n      sload\n        /* \"contracts/Staking.sol\":5555:5567  100000 ether */\n      0x152d02c7e14af6800000\n      gt\n        /* \"contracts/Staking.sol\":5531:5740  if (pool.totalStaked >= 100000 ether) {... */\n      tag_147\n      jumpi\n        /* \"contracts/Staking.sol\":5595:5597  30 */\n      0x1e\n        /* \"contracts/Staking.sol\":5584:5597  pool.apy = 30 */\n      dup2\n      sstore\n        /* \"contracts/Staking.sol\":5531:5740  if (pool.totalStaked >= 100000 ether) {... */\n      jump(tag_150)\n    tag_147:\n        /* \"contracts/Staking.sol\":5639:5650  50000 ether */\n      0x0a968163f0a57b400000\n        /* \"contracts/Staking.sol\":5619:5623  pool */\n      dup2\n        /* \"contracts/Staking.sol\":5619:5635  pool.totalStaked */\n      0x01\n      add\n      sload\n        /* \"contracts/Staking.sol\":5619:5650  pool.totalStaked >= 50000 ether */\n      lt\n        /* \"contracts/Staking.sol\":5615:5740  if (pool.totalStaked >= 50000 ether) {... */\n      tag_149\n      jumpi\n        /* \"contracts/Staking.sol\":5678:5681  100 */\n      0x64\n        /* \"contracts/Staking.sol\":5667:5681  pool.apy = 100 */\n      dup2\n      sstore\n        /* \"contracts/Staking.sol\":5615:5740  if (pool.totalStaked >= 50000 ether) {... */\n      jump(tag_150)\n    tag_149:\n        /* \"contracts/Staking.sol\":5725:5728  200 */\n      0xc8\n        /* \"contracts/Staking.sol\":5714:5728  pool.apy = 200 */\n      dup2\n      sstore\n        /* \"contracts/Staking.sol\":5615:5740  if (pool.totalStaked >= 50000 ether) {... */\n    tag_150:\n        /* \"contracts/Staking.sol\":5778:5786  pool.apy */\n      dup1\n      sload\n        /* \"contracts/Staking.sol\":5757:5787  APYAdjusted(_poolId, pool.apy) */\n      mload(0x40)\n        /* \"#utility.yul\":1224:1249   */\n      swap1\n      dup2\n      mstore\n        /* \"contracts/Staking.sol\":5769:5776  _poolId */\n      dup3\n      swap1\n        /* \"contracts/Staking.sol\":5757:5787  APYAdjusted(_poolId, pool.apy) */\n      0x9c4893e20d6432767854bfaa7ead2c90ad7644e9440c6861a383f63e4fb2803e\n      swap1\n        /* \"#utility.yul\":1212:1214   */\n      0x20\n        /* \"#utility.yul\":1197:1215   */\n      add\n        /* \"contracts/Staking.sol\":5757:5787  APYAdjusted(_poolId, pool.apy) */\n      mload(0x40)\n      dup1\n      swap2\n      sub\n      swap1\n      log2\n        /* \"contracts/Staking.sol\":5401:5795  {... */\n      pop\n        /* \"contracts/Staking.sol\":5346:5795  function adjustAPY(uint256 _poolId) external onlyOwner {... */\n      pop\n      jump\t// out\n        /* \"@openzeppelin/contracts/access/Ownable.sol\":2293:2394  function renounceOwnership() public virtual onlyOwner {... */\n    tag_54:\n        /* \"@openzeppelin/contracts/access/Ownable.sol\":1531:1544  _checkOwner() */\n      tag_153\n        /* \"@openzeppelin/contracts/access/Ownable.sol\":1531:1542  _checkOwner */\n      tag_132\n        /* \"@openzeppelin/contracts/access/Ownable.sol\":1531:1544  _checkOwner() */\n      jump\t// in\n    tag_153:\n        /* \"@openzeppelin/contracts/access/Ownable.sol\":2357:2387  _transferOwnership(address(0)) */\n      tag_155\n        /* \"@openzeppelin/contracts/access/Ownable.sol\":2384:2385  0 */\n      0x00\n        /* \"@openzeppelin/contracts/access/Ownable.sol\":2357:2375  _transferOwnership */\n      tag_156\n        /* \"@openzeppelin/contracts/access/Ownable.sol\":2357:2387  _transferOwnership(address(0)) */\n      jump\t// in\n    tag_155:\n        /* \"@openzeppelin/contracts/access/Ownable.sol\":2293:2394  function renounceOwnership() public virtual onlyOwner {... */\n      jump\t// out\n        /* \"contracts/Staking.sol\":2599:3408  function stake(uint256 _poolId, uint256 _amount) external nonReentrant feeWalletSet {... */\n    tag_62:\n        /* \"@openzeppelin/contracts/security/ReentrancyGuard.sol\":2261:2282  _nonReentrantBefore() */\n      tag_158\n        /* \"@openzeppelin/contracts/security/ReentrancyGuard.sol\":2261:2280  _nonReentrantBefore */\n      tag_105\n        /* \"@openzeppelin/contracts/security/ReentrancyGuard.sol\":2261:2282  _nonReentrantBefore() */\n      jump\t// in\n    tag_158:\n        /* \"contracts/Staking.sol\":1898:1907  feeWallet */\n      and(sub(shl(0xa0, 0x01), 0x01), sload(0x03))\n        /* \"contracts/Staking.sol\":1890:1944  require(feeWallet != address(0), \"Fee wallet not set\") */\n      tag_160\n      jumpi\n      mload(0x40)\n      shl(0xe5, 0x461bcd)\n      dup2\n      mstore\n        /* \"#utility.yul\":5555:5557   */\n      0x20\n        /* \"contracts/Staking.sol\":1890:1944  require(feeWallet != address(0), \"Fee wallet not set\") */\n      0x04\n      dup3\n      add\n        /* \"#utility.yul\":5537:5558   */\n      mstore\n        /* \"#utility.yul\":5594:5596   */\n      0x12\n        /* \"#utility.yul\":5574:5592   */\n      0x24\n      dup3\n      add\n        /* \"#utility.yul\":5567:5597   */\n      mstore\n      shl(0x72, 0x119959481dd85b1b195d081b9bdd081cd95d)\n        /* \"#utility.yul\":5613:5631   */\n      0x44\n      dup3\n      add\n        /* \"#utility.yul\":5606:5654   */\n      mstore\n        /* \"#utility.yul\":5671:5689   */\n      0x64\n      add\n        /* \"contracts/Staking.sol\":1890:1944  require(feeWallet != address(0), \"Fee wallet not set\") */\n      tag_108\n        /* \"#utility.yul\":5353:5695   */\n      jump\n        /* \"contracts/Staking.sol\":1890:1944  require(feeWallet != address(0), \"Fee wallet not set\") */\n    tag_160:\n        /* \"contracts/Staking.sol\":2712:2721  poolCount */\n      sload(0x05)\n        /* \"contracts/Staking.sol\":2702:2709  _poolId */\n      dup3\n        /* \"contracts/Staking.sol\":2702:2721  _poolId < poolCount */\n      lt\n        /* \"contracts/Staking.sol\":2694:2745  require(_poolId < poolCount, \"Pool does not exist\") */\n      tag_164\n      jumpi\n      mload(0x40)\n      shl(0xe5, 0x461bcd)\n      dup2\n      mstore\n      0x04\n      add\n      tag_108\n      swap1\n      tag_109\n      jump\t// in\n    tag_164:\n        /* \"contracts/Staking.sol\":2774:2775  0 */\n      0x00\n        /* \"contracts/Staking.sol\":2764:2771  _amount */\n      dup2\n        /* \"contracts/Staking.sol\":2764:2775  _amount > 0 */\n      gt\n        /* \"contracts/Staking.sol\":2756:2812  require(_amount > 0, \"Amount must be greater than zero\") */\n      tag_166\n      jumpi\n      mload(0x40)\n      shl(0xe5, 0x461bcd)\n      dup2\n      mstore\n        /* \"#utility.yul\":5902:5904   */\n      0x20\n        /* \"contracts/Staking.sol\":2756:2812  require(_amount > 0, \"Amount must be greater than zero\") */\n      0x04\n      dup3\n      add\n        /* \"#utility.yul\":5884:5905   */\n      dup2\n      swap1\n      mstore\n        /* \"#utility.yul\":5921:5939   */\n      0x24\n      dup3\n      add\n        /* \"#utility.yul\":5914:5944   */\n      mstore\n        /* \"#utility.yul\":5980:6014   */\n      0x416d6f756e74206d7573742062652067726561746572207468616e207a65726f\n        /* \"#utility.yul\":5960:5978   */\n      0x44\n      dup3\n      add\n        /* \"#utility.yul\":5953:6015   */\n      mstore\n        /* \"#utility.yul\":6032:6050   */\n      0x64\n      add\n        /* \"contracts/Staking.sol\":2756:2812  require(_amount > 0, \"Amount must be greater than zero\") */\n      tag_108\n        /* \"#utility.yul\":5700:6056   */\n      jump\n        /* \"contracts/Staking.sol\":2756:2812  require(_amount > 0, \"Amount must be greater than zero\") */\n    tag_166:\n        /* \"contracts/Staking.sol\":2825:2842  Pool storage pool */\n      0x00\n        /* \"contracts/Staking.sol\":2845:2859  pools[_poolId] */\n      dup3\n      dup2\n      mstore\n        /* \"contracts/Staking.sol\":2845:2850  pools */\n      0x04\n        /* \"contracts/Staking.sol\":2845:2859  pools[_poolId] */\n      0x20\n      mstore\n      0x40\n      dup2\n      keccak256\n      swap1\n        /* \"contracts/Staking.sol\":2914:2919  10000 */\n      0x2710\n        /* \"contracts/Staking.sol\":2885:2910  _amount * DEPOSIT_FEE_BPS */\n      tag_169\n        /* \"contracts/Staking.sol\":654:657  200 */\n      0xc8\n        /* \"contracts/Staking.sol\":2885:2892  _amount */\n      dup6\n        /* \"contracts/Staking.sol\":2885:2910  _amount * DEPOSIT_FEE_BPS */\n      tag_170\n      jump\t// in\n    tag_169:\n        /* \"contracts/Staking.sol\":2884:2919  (_amount * DEPOSIT_FEE_BPS) / 10000 */\n      tag_171\n      swap2\n      swap1\n      tag_172\n      jump\t// in\n    tag_171:\n        /* \"contracts/Staking.sol\":2870:2919  uint256 fee = (_amount * DEPOSIT_FEE_BPS) / 10000 */\n      swap1\n      pop\n        /* \"contracts/Staking.sol\":2930:2952  uint256 amountAfterFee */\n      0x00\n        /* \"contracts/Staking.sol\":2955:2968  _amount - fee */\n      tag_173\n        /* \"contracts/Staking.sol\":2870:2919  uint256 fee = (_amount * DEPOSIT_FEE_BPS) / 10000 */\n      dup3\n        /* \"contracts/Staking.sol\":2955:2962  _amount */\n      dup6\n        /* \"contracts/Staking.sol\":2955:2968  _amount - fee */\n      tag_174\n      jump\t// in\n    tag_173:\n        /* \"contracts/Staking.sol\":2989:3001  stakingToken */\n      sload(0x02)\n        /* \"contracts/Staking.sol\":2989:3057  stakingToken.transferFrom(msg.sender, address(this), amountAfterFee) */\n      mload(0x40)\n      shl(0xe0, 0x23b872dd)\n      dup2\n      mstore\n        /* \"contracts/Staking.sol\":3015:3025  msg.sender */\n      caller\n        /* \"contracts/Staking.sol\":2989:3057  stakingToken.transferFrom(msg.sender, address(this), amountAfterFee) */\n      0x04\n      dup3\n      add\n        /* \"#utility.yul\":6791:6842   */\n      mstore\n        /* \"contracts/Staking.sol\":3035:3039  this */\n      address\n        /* \"#utility.yul\":6858:6876   */\n      0x24\n      dup3\n      add\n        /* \"#utility.yul\":6851:6911   */\n      mstore\n        /* \"#utility.yul\":6927:6945   */\n      0x44\n      dup2\n      add\n        /* \"#utility.yul\":6920:6954   */\n      dup4\n      swap1\n      mstore\n        /* \"contracts/Staking.sol\":2930:2968  uint256 amountAfterFee = _amount - fee */\n      swap2\n      swap3\n      pop\n      sub(shl(0xa0, 0x01), 0x01)\n        /* \"contracts/Staking.sol\":2989:3001  stakingToken */\n      and\n      swap1\n        /* \"contracts/Staking.sol\":2989:3014  stakingToken.transferFrom */\n      0x23b872dd\n      swap1\n        /* \"#utility.yul\":6764:6782   */\n      0x64\n      add\n        /* \"contracts/Staking.sol\":2989:3057  stakingToken.transferFrom(msg.sender, address(this), amountAfterFee) */\n      0x20\n      mload(0x40)\n      dup1\n      dup4\n      sub\n      dup2\n      0x00\n      dup8\n      gas\n      call\n      iszero\n      dup1\n      iszero\n      tag_178\n      jumpi\n      returndatasize\n      0x00\n      dup1\n      returndatacopy\n      revert(0x00, returndatasize)\n    tag_178:\n      pop\n      pop\n      pop\n      pop\n      mload(0x40)\n      returndatasize\n      not(0x1f)\n      0x1f\n      dup3\n      add\n      and\n      dup3\n      add\n      dup1\n      0x40\n      mstore\n      pop\n      dup2\n      add\n      swap1\n      tag_179\n      swap2\n      swap1\n      tag_119\n      jump\t// in\n    tag_179:\n        /* \"contracts/Staking.sol\":2981:3077  require(stakingToken.transferFrom(msg.sender, address(this), amountAfterFee), \"Transfer failed\") */\n      tag_180\n      jumpi\n      mload(0x40)\n      shl(0xe5, 0x461bcd)\n      dup2\n      mstore\n        /* \"#utility.yul\":7167:7169   */\n      0x20\n        /* \"contracts/Staking.sol\":2981:3077  require(stakingToken.transferFrom(msg.sender, address(this), amountAfterFee), \"Transfer failed\") */\n      0x04\n      dup3\n      add\n        /* \"#utility.yul\":7149:7170   */\n      mstore\n        /* \"#utility.yul\":7206:7208   */\n      0x0f\n        /* \"#utility.yul\":7186:7204   */\n      0x24\n      dup3\n      add\n        /* \"#utility.yul\":7179:7209   */\n      mstore\n      shl(0x8a, 0x151c985b9cd9995c8819985a5b1959)\n        /* \"#utility.yul\":7225:7243   */\n      0x44\n      dup3\n      add\n        /* \"#utility.yul\":7218:7263   */\n      mstore\n        /* \"#utility.yul\":7280:7298   */\n      0x64\n      add\n        /* \"contracts/Staking.sol\":2981:3077  require(stakingToken.transferFrom(msg.sender, address(this), amountAfterFee), \"Transfer failed\") */\n      tag_108\n        /* \"#utility.yul\":6965:7304   */\n      jump\n        /* \"contracts/Staking.sol\":2981:3077  require(stakingToken.transferFrom(msg.sender, address(this), amountAfterFee), \"Transfer failed\") */\n    tag_180:\n        /* \"contracts/Staking.sol\":3096:3108  stakingToken */\n      sload(0x02)\n        /* \"contracts/Staking.sol\":3134:3143  feeWallet */\n      sload(0x03)\n        /* \"contracts/Staking.sol\":3096:3149  stakingToken.transferFrom(msg.sender, feeWallet, fee) */\n      mload(0x40)\n      shl(0xe0, 0x23b872dd)\n      dup2\n      mstore\n        /* \"contracts/Staking.sol\":3122:3132  msg.sender */\n      caller\n        /* \"contracts/Staking.sol\":3096:3149  stakingToken.transferFrom(msg.sender, feeWallet, fee) */\n      0x04\n      dup3\n      add\n        /* \"#utility.yul\":6791:6842   */\n      mstore\n      sub(shl(0xa0, 0x01), 0x01)\n        /* \"contracts/Staking.sol\":3134:3143  feeWallet */\n      swap2\n      dup3\n      and\n        /* \"#utility.yul\":6858:6876   */\n      0x24\n      dup3\n      add\n        /* \"#utility.yul\":6851:6911   */\n      mstore\n        /* \"#utility.yul\":6927:6945   */\n      0x44\n      dup2\n      add\n        /* \"#utility.yul\":6920:6954   */\n      dup6\n      swap1\n      mstore\n        /* \"contracts/Staking.sol\":3096:3108  stakingToken */\n      swap2\n      and\n      swap1\n        /* \"contracts/Staking.sol\":3096:3121  stakingToken.transferFrom */\n      0x23b872dd\n      swap1\n        /* \"#utility.yul\":6764:6782   */\n      0x64\n      add\n        /* \"contracts/Staking.sol\":3096:3149  stakingToken.transferFrom(msg.sender, feeWallet, fee) */\n      0x20\n      mload(0x40)\n      dup1\n      dup4\n      sub\n      dup2\n      0x00\n      dup8\n      gas\n      call\n      iszero\n      dup1\n      iszero\n      tag_185\n      jumpi\n      returndatasize\n      0x00\n      dup1\n      returndatacopy\n      revert(0x00, returndatasize)\n    tag_185:\n      pop\n      pop\n      pop\n      pop\n      mload(0x40)\n      returndatasize\n      not(0x1f)\n      0x1f\n      dup3\n      add\n      and\n      dup3\n      add\n      dup1\n      0x40\n      mstore\n      pop\n      dup2\n      add\n      swap1\n      tag_186\n      swap2\n      swap1\n      tag_119\n      jump\t// in\n    tag_186:\n        /* \"contracts/Staking.sol\":3088:3173  require(stakingToken.transferFrom(msg.sender, feeWallet, fee), \"Fee transfer failed\") */\n      tag_187\n      jumpi\n      mload(0x40)\n      shl(0xe5, 0x461bcd)\n      dup2\n      mstore\n        /* \"#utility.yul\":7511:7513   */\n      0x20\n        /* \"contracts/Staking.sol\":3088:3173  require(stakingToken.transferFrom(msg.sender, feeWallet, fee), \"Fee transfer failed\") */\n      0x04\n      dup3\n      add\n        /* \"#utility.yul\":7493:7514   */\n      mstore\n        /* \"#utility.yul\":7550:7552   */\n      0x13\n        /* \"#utility.yul\":7530:7548   */\n      0x24\n      dup3\n      add\n        /* \"#utility.yul\":7523:7553   */\n      mstore\n      shl(0x6a, 0x119959481d1c985b9cd9995c8819985a5b1959)\n        /* \"#utility.yul\":7569:7587   */\n      0x44\n      dup3\n      add\n        /* \"#utility.yul\":7562:7611   */\n      mstore\n        /* \"#utility.yul\":7628:7646   */\n      0x64\n      add\n        /* \"contracts/Staking.sol\":3088:3173  require(stakingToken.transferFrom(msg.sender, feeWallet, fee), \"Fee transfer failed\") */\n      tag_108\n        /* \"#utility.yul\":7309:7652   */\n      jump\n        /* \"contracts/Staking.sol\":3088:3173  require(stakingToken.transferFrom(msg.sender, feeWallet, fee), \"Fee transfer failed\") */\n    tag_187:\n        /* \"contracts/Staking.sol\":3205:3215  msg.sender */\n      caller\n        /* \"contracts/Staking.sol\":3186:3216  pool.stakedAmounts[msg.sender] */\n      0x00\n      swap1\n      dup2\n      mstore\n        /* \"contracts/Staking.sol\":3186:3204  pool.stakedAmounts */\n      0x03\n      dup5\n      add\n        /* \"contracts/Staking.sol\":3186:3216  pool.stakedAmounts[msg.sender] */\n      0x20\n      mstore\n      0x40\n      dup2\n      keccak256\n        /* \"contracts/Staking.sol\":3186:3234  pool.stakedAmounts[msg.sender] += amountAfterFee */\n      dup1\n      sload\n        /* \"contracts/Staking.sol\":3220:3234  amountAfterFee */\n      dup4\n      swap3\n        /* \"contracts/Staking.sol\":3186:3216  pool.stakedAmounts[msg.sender] */\n      swap1\n        /* \"contracts/Staking.sol\":3186:3234  pool.stakedAmounts[msg.sender] += amountAfterFee */\n      tag_190\n      swap1\n        /* \"contracts/Staking.sol\":3220:3234  amountAfterFee */\n      dup5\n      swap1\n        /* \"contracts/Staking.sol\":3186:3234  pool.stakedAmounts[msg.sender] += amountAfterFee */\n      tag_191\n      jump\t// in\n    tag_190:\n      swap3\n      pop\n      pop\n      dup2\n      swap1\n      sstore\n      pop\n        /* \"contracts/Staking.sol\":3265:3279  amountAfterFee */\n      dup1\n        /* \"contracts/Staking.sol\":3245:3249  pool */\n      dup4\n        /* \"contracts/Staking.sol\":3245:3261  pool.totalStaked */\n      0x01\n      add\n      0x00\n        /* \"contracts/Staking.sol\":3245:3279  pool.totalStaked += amountAfterFee */\n      dup3\n      dup3\n      sload\n      tag_192\n      swap2\n      swap1\n      tag_191\n      jump\t// in\n    tag_192:\n      swap1\n      swap2\n      sstore\n      pop\n      pop\n        /* \"contracts/Staking.sol\":3310:3320  msg.sender */\n      caller\n        /* \"contracts/Staking.sol\":3290:3321  pool.lastStakedTime[msg.sender] */\n      0x00\n      dup2\n      dup2\n      mstore\n        /* \"contracts/Staking.sol\":3290:3309  pool.lastStakedTime */\n      0x04\n      dup6\n      add\n        /* \"contracts/Staking.sol\":3290:3321  pool.lastStakedTime[msg.sender] */\n      0x20\n      swap1\n      dup2\n      mstore\n      0x40\n      swap2\n      dup3\n      swap1\n      keccak256\n        /* \"contracts/Staking.sol\":3324:3339  block.timestamp */\n      timestamp\n        /* \"contracts/Staking.sol\":3290:3339  pool.lastStakedTime[msg.sender] = block.timestamp */\n      swap1\n      sstore\n        /* \"contracts/Staking.sol\":3357:3400  Staked(msg.sender, _poolId, amountAfterFee) */\n      dup2\n      mload\n        /* \"#utility.yul\":4379:4404   */\n      dup9\n      dup2\n      mstore\n        /* \"#utility.yul\":4420:4438   */\n      swap1\n      dup2\n      add\n        /* \"#utility.yul\":4413:4447   */\n      dup5\n      swap1\n      mstore\n        /* \"contracts/Staking.sol\":3357:3400  Staked(msg.sender, _poolId, amountAfterFee) */\n      0x1449c6dd7851abc30abf37f57715f492010519147cc2652fbc38202c18a6ee90\n      swap2\n        /* \"#utility.yul\":4352:4370   */\n      add\n        /* \"contracts/Staking.sol\":3357:3400  Staked(msg.sender, _poolId, amountAfterFee) */\n      mload(0x40)\n      dup1\n      swap2\n      sub\n      swap1\n      log2\n        /* \"contracts/Staking.sol\":2683:3408  {... */\n      pop\n      pop\n      pop\n        /* \"@openzeppelin/contracts/security/ReentrancyGuard.sol\":2303:2323  _nonReentrantAfter() */\n      tag_194\n        /* \"@openzeppelin/contracts/security/ReentrancyGuard.sol\":1716:1717  1 */\n      0x01\n        /* \"@openzeppelin/contracts/security/ReentrancyGuard.sol\":2809:2831  _status = _NOT_ENTERED */\n      dup1\n      sstore\n        /* \"@openzeppelin/contracts/security/ReentrancyGuard.sol\":2629:2838  function _nonReentrantAfter() private {... */\n      jump\n        /* \"@openzeppelin/contracts/security/ReentrancyGuard.sol\":2303:2323  _nonReentrantAfter() */\n    tag_194:\n        /* \"contracts/Staking.sol\":2599:3408  function stake(uint256 _poolId, uint256 _amount) external nonReentrant feeWalletSet {... */\n      pop\n      pop\n      jump\t// out\n        /* \"contracts/Staking.sol\":2101:2228  function setFeeWallet(address _feeWallet) external onlyOwner validAddress(_feeWallet) {... */\n    tag_73:\n        /* \"@openzeppelin/contracts/access/Ownable.sol\":1531:1544  _checkOwner() */\n      tag_198\n        /* \"@openzeppelin/contracts/access/Ownable.sol\":1531:1542  _checkOwner */\n      tag_132\n        /* \"@openzeppelin/contracts/access/Ownable.sol\":1531:1544  _checkOwner() */\n      jump\t// in\n    tag_198:\n        /* \"contracts/Staking.sol\":2175:2185  _feeWallet */\n      dup1\n      sub(shl(0xa0, 0x01), 0x01)\n        /* \"contracts/Staking.sol\":2031:2053  _address != address(0) */\n      dup2\n      and\n        /* \"contracts/Staking.sol\":2023:2073  require(_address != address(0), \"Invalid address\") */\n      tag_200\n      jumpi\n      mload(0x40)\n      shl(0xe5, 0x461bcd)\n      dup2\n      mstore\n        /* \"#utility.yul\":4660:4662   */\n      0x20\n        /* \"contracts/Staking.sol\":2023:2073  require(_address != address(0), \"Invalid address\") */\n      0x04\n      dup3\n      add\n        /* \"#utility.yul\":4642:4663   */\n      mstore\n        /* \"#utility.yul\":4699:4701   */\n      0x0f\n        /* \"#utility.yul\":4679:4697   */\n      0x24\n      dup3\n      add\n        /* \"#utility.yul\":4672:4702   */\n      mstore\n      shl(0x88, 0x496e76616c69642061646472657373)\n        /* \"#utility.yul\":4718:4736   */\n      0x44\n      dup3\n      add\n        /* \"#utility.yul\":4711:4756   */\n      mstore\n        /* \"#utility.yul\":4773:4791   */\n      0x64\n      add\n        /* \"contracts/Staking.sol\":2023:2073  require(_address != address(0), \"Invalid address\") */\n      tag_108\n        /* \"#utility.yul\":4458:4797   */\n      jump\n        /* \"contracts/Staking.sol\":2023:2073  require(_address != address(0), \"Invalid address\") */\n    tag_200:\n      pop\n        /* \"contracts/Staking.sol\":2198:2207  feeWallet */\n      0x03\n        /* \"contracts/Staking.sol\":2198:2220  feeWallet = _feeWallet */\n      dup1\n      sload\n      not(sub(shl(0xa0, 0x01), 0x01))\n      and\n      sub(shl(0xa0, 0x01), 0x01)\n      swap3\n      swap1\n      swap3\n      and\n      swap2\n      swap1\n      swap2\n      or\n      swap1\n      sstore\n        /* \"contracts/Staking.sol\":2101:2228  function setFeeWallet(address _feeWallet) external onlyOwner validAddress(_feeWallet) {... */\n      jump\t// out\n        /* \"contracts/Staking.sol\":3416:4381  function unstake(uint256 _poolId, uint256 _amount) external nonReentrant feeWalletSet {... */\n    tag_76:\n        /* \"@openzeppelin/contracts/security/ReentrancyGuard.sol\":2261:2282  _nonReentrantBefore() */\n      tag_204\n        /* \"@openzeppelin/contracts/security/ReentrancyGuard.sol\":2261:2280  _nonReentrantBefore */\n      tag_105\n        /* \"@openzeppelin/contracts/security/ReentrancyGuard.sol\":2261:2282  _nonReentrantBefore() */\n      jump\t// in\n    tag_204:\n        /* \"contracts/Staking.sol\":1898:1907  feeWallet */\n      and(sub(shl(0xa0, 0x01), 0x01), sload(0x03))\n        /* \"contracts/Staking.sol\":1890:1944  require(feeWallet != address(0), \"Fee wallet not set\") */\n      tag_206\n      jumpi\n      mload(0x40)\n      shl(0xe5, 0x461bcd)\n      dup2\n      mstore\n        /* \"#utility.yul\":5555:5557   */\n      0x20\n        /* \"contracts/Staking.sol\":1890:1944  require(feeWallet != address(0), \"Fee wallet not set\") */\n      0x04\n      dup3\n      add\n        /* \"#utility.yul\":5537:5558   */\n      mstore\n        /* \"#utility.yul\":5594:5596   */\n      0x12\n        /* \"#utility.yul\":5574:5592   */\n      0x24\n      dup3\n      add\n        /* \"#utility.yul\":5567:5597   */\n      mstore\n      shl(0x72, 0x119959481dd85b1b195d081b9bdd081cd95d)\n        /* \"#utility.yul\":5613:5631   */\n      0x44\n      dup3\n      add\n        /* \"#utility.yul\":5606:5654   */\n      mstore\n        /* \"#utility.yul\":5671:5689   */\n      0x64\n      add\n        /* \"contracts/Staking.sol\":1890:1944  require(feeWallet != address(0), \"Fee wallet not set\") */\n      tag_108\n        /* \"#utility.yul\":5353:5695   */\n      jump\n        /* \"contracts/Staking.sol\":1890:1944  require(feeWallet != address(0), \"Fee wallet not set\") */\n    tag_206:\n        /* \"contracts/Staking.sol\":3531:3540  poolCount */\n      sload(0x05)\n        /* \"contracts/Staking.sol\":3521:3528  _poolId */\n      dup3\n        /* \"contracts/Staking.sol\":3521:3540  _poolId < poolCount */\n      lt\n        /* \"contracts/Staking.sol\":3513:3564  require(_poolId < poolCount, \"Pool does not exist\") */\n      tag_209\n      jumpi\n      mload(0x40)\n      shl(0xe5, 0x461bcd)\n      dup2\n      mstore\n      0x04\n      add\n      tag_108\n      swap1\n      tag_109\n      jump\t// in\n    tag_209:\n        /* \"contracts/Staking.sol\":3593:3594  0 */\n      0x00\n        /* \"contracts/Staking.sol\":3583:3590  _amount */\n      dup2\n        /* \"contracts/Staking.sol\":3583:3594  _amount > 0 */\n      gt\n        /* \"contracts/Staking.sol\":3575:3631  require(_amount > 0, \"Amount must be greater than zero\") */\n      tag_211\n      jumpi\n      mload(0x40)\n      shl(0xe5, 0x461bcd)\n      dup2\n      mstore\n        /* \"#utility.yul\":5902:5904   */\n      0x20\n        /* \"contracts/Staking.sol\":3575:3631  require(_amount > 0, \"Amount must be greater than zero\") */\n      0x04\n      dup3\n      add\n        /* \"#utility.yul\":5884:5905   */\n      dup2\n      swap1\n      mstore\n        /* \"#utility.yul\":5921:5939   */\n      0x24\n      dup3\n      add\n        /* \"#utility.yul\":5914:5944   */\n      mstore\n        /* \"#utility.yul\":5980:6014   */\n      0x416d6f756e74206d7573742062652067726561746572207468616e207a65726f\n        /* \"#utility.yul\":5960:5978   */\n      0x44\n      dup3\n      add\n        /* \"#utility.yul\":5953:6015   */\n      mstore\n        /* \"#utility.yul\":6032:6050   */\n      0x64\n      add\n        /* \"contracts/Staking.sol\":3575:3631  require(_amount > 0, \"Amount must be greater than zero\") */\n      tag_108\n        /* \"#utility.yul\":5700:6056   */\n      jump\n        /* \"contracts/Staking.sol\":3575:3631  require(_amount > 0, \"Amount must be greater than zero\") */\n    tag_211:\n        /* \"contracts/Staking.sol\":3644:3661  Pool storage pool */\n      0x00\n        /* \"contracts/Staking.sol\":3664:3678  pools[_poolId] */\n      dup3\n      dup2\n      mstore\n        /* \"contracts/Staking.sol\":3664:3669  pools */\n      0x04\n        /* \"contracts/Staking.sol\":3664:3678  pools[_poolId] */\n      0x20\n      swap1\n      dup2\n      mstore\n      0x40\n      dup1\n      dup4\n      keccak256\n        /* \"contracts/Staking.sol\":3731:3741  msg.sender */\n      caller\n        /* \"contracts/Staking.sol\":3712:3742  pool.stakedAmounts[msg.sender] */\n      dup5\n      mstore\n        /* \"contracts/Staking.sol\":3712:3730  pool.stakedAmounts */\n      0x03\n      dup2\n      add\n        /* \"contracts/Staking.sol\":3712:3742  pool.stakedAmounts[msg.sender] */\n      swap1\n      swap3\n      mstore\n      swap1\n      swap2\n      keccak256\n      sload\n        /* \"contracts/Staking.sol\":3763:3786  stakedAmount >= _amount */\n      dup3\n      dup2\n      lt\n      iszero\n        /* \"contracts/Staking.sol\":3755:3818  require(stakedAmount >= _amount, \"Insufficient staked balance\") */\n      tag_213\n      jumpi\n      mload(0x40)\n      shl(0xe5, 0x461bcd)\n      dup2\n      mstore\n        /* \"#utility.yul\":7989:7991   */\n      0x20\n        /* \"contracts/Staking.sol\":3755:3818  require(stakedAmount >= _amount, \"Insufficient staked balance\") */\n      0x04\n      dup3\n      add\n        /* \"#utility.yul\":7971:7992   */\n      mstore\n        /* \"#utility.yul\":8028:8030   */\n      0x1b\n        /* \"#utility.yul\":8008:8026   */\n      0x24\n      dup3\n      add\n        /* \"#utility.yul\":8001:8031   */\n      mstore\n        /* \"#utility.yul\":8067:8096   */\n      0x496e73756666696369656e74207374616b65642062616c616e63650000000000\n        /* \"#utility.yul\":8047:8065   */\n      0x44\n      dup3\n      add\n        /* \"#utility.yul\":8040:8097   */\n      mstore\n        /* \"#utility.yul\":8114:8132   */\n      0x64\n      add\n        /* \"contracts/Staking.sol\":3755:3818  require(stakedAmount >= _amount, \"Insufficient staked balance\") */\n      tag_108\n        /* \"#utility.yul\":7787:8138   */\n      jump\n        /* \"contracts/Staking.sol\":3755:3818  require(stakedAmount >= _amount, \"Insufficient staked balance\") */\n    tag_213:\n        /* \"contracts/Staking.sol\":3876:3886  msg.sender */\n      caller\n        /* \"contracts/Staking.sol\":3856:3887  pool.lastStakedTime[msg.sender] */\n      0x00\n      swap1\n      dup2\n      mstore\n        /* \"contracts/Staking.sol\":3856:3875  pool.lastStakedTime */\n      0x04\n      dup4\n      add\n        /* \"contracts/Staking.sol\":3856:3887  pool.lastStakedTime[msg.sender] */\n      0x20\n      mstore\n      0x40\n      swap1\n      keccak256\n      sload\n        /* \"contracts/Staking.sol\":3856:3905  pool.lastStakedTime[msg.sender] + COOLDOWN_PERIOD */\n      tag_216\n      swap1\n        /* \"contracts/Staking.sol\":462:469  4 hours */\n      0x3840\n      swap1\n        /* \"contracts/Staking.sol\":3856:3905  pool.lastStakedTime[msg.sender] + COOLDOWN_PERIOD */\n      tag_191\n      jump\t// in\n    tag_216:\n        /* \"contracts/Staking.sol\":3837:3852  block.timestamp */\n      timestamp\n        /* \"contracts/Staking.sol\":3837:3905  block.timestamp >= pool.lastStakedTime[msg.sender] + COOLDOWN_PERIOD */\n      lt\n      iszero\n        /* \"contracts/Staking.sol\":3829:3934  require(block.timestamp >= pool.lastStakedTime[msg.sender] + COOLDOWN_PERIOD, \"Cooldown period not over\") */\n      tag_217\n      jumpi\n      mload(0x40)\n      shl(0xe5, 0x461bcd)\n      dup2\n      mstore\n        /* \"#utility.yul\":8345:8347   */\n      0x20\n        /* \"contracts/Staking.sol\":3829:3934  require(block.timestamp >= pool.lastStakedTime[msg.sender] + COOLDOWN_PERIOD, \"Cooldown period not over\") */\n      0x04\n      dup3\n      add\n        /* \"#utility.yul\":8327:8348   */\n      mstore\n        /* \"#utility.yul\":8384:8386   */\n      0x18\n        /* \"#utility.yul\":8364:8382   */\n      0x24\n      dup3\n      add\n        /* \"#utility.yul\":8357:8387   */\n      mstore\n        /* \"#utility.yul\":8423:8449   */\n      0x436f6f6c646f776e20706572696f64206e6f74206f7665720000000000000000\n        /* \"#utility.yul\":8403:8421   */\n      0x44\n      dup3\n      add\n        /* \"#utility.yul\":8396:8450   */\n      mstore\n        /* \"#utility.yul\":8467:8485   */\n      0x64\n      add\n        /* \"contracts/Staking.sol\":3829:3934  require(block.timestamp >= pool.lastStakedTime[msg.sender] + COOLDOWN_PERIOD, \"Cooldown period not over\") */\n      tag_108\n        /* \"#utility.yul\":8143:8491   */\n      jump\n        /* \"contracts/Staking.sol\":3829:3934  require(block.timestamp >= pool.lastStakedTime[msg.sender] + COOLDOWN_PERIOD, \"Cooldown period not over\") */\n    tag_217:\n        /* \"contracts/Staking.sol\":3947:3958  uint256 fee */\n      0x00\n        /* \"contracts/Staking.sol\":3994:3999  10000 */\n      0x2710\n        /* \"contracts/Staking.sol\":3962:3990  _amount * WITHDRAWAL_FEE_BPS */\n      tag_220\n        /* \"contracts/Staking.sol\":715:718  500 */\n      0x01f4\n        /* \"contracts/Staking.sol\":3962:3969  _amount */\n      dup7\n        /* \"contracts/Staking.sol\":3962:3990  _amount * WITHDRAWAL_FEE_BPS */\n      tag_170\n      jump\t// in\n    tag_220:\n        /* \"contracts/Staking.sol\":3961:3999  (_amount * WITHDRAWAL_FEE_BPS) / 10000 */\n      tag_221\n      swap2\n      swap1\n      tag_172\n      jump\t// in\n    tag_221:\n        /* \"contracts/Staking.sol\":3947:3999  uint256 fee = (_amount * WITHDRAWAL_FEE_BPS) / 10000 */\n      swap1\n      pop\n        /* \"contracts/Staking.sol\":4010:4032  uint256 amountAfterFee */\n      0x00\n        /* \"contracts/Staking.sol\":4035:4048  _amount - fee */\n      tag_222\n        /* \"contracts/Staking.sol\":3947:3999  uint256 fee = (_amount * WITHDRAWAL_FEE_BPS) / 10000 */\n      dup3\n        /* \"contracts/Staking.sol\":4035:4042  _amount */\n      dup7\n        /* \"contracts/Staking.sol\":4035:4048  _amount - fee */\n      tag_174\n      jump\t// in\n    tag_222:\n        /* \"contracts/Staking.sol\":4080:4090  msg.sender */\n      caller\n        /* \"contracts/Staking.sol\":4061:4091  pool.stakedAmounts[msg.sender] */\n      0x00\n      swap1\n      dup2\n      mstore\n        /* \"contracts/Staking.sol\":4061:4079  pool.stakedAmounts */\n      0x03\n      dup7\n      add\n        /* \"contracts/Staking.sol\":4061:4091  pool.stakedAmounts[msg.sender] */\n      0x20\n      mstore\n      0x40\n      dup2\n      keccak256\n        /* \"contracts/Staking.sol\":4061:4102  pool.stakedAmounts[msg.sender] -= _amount */\n      dup1\n      sload\n        /* \"contracts/Staking.sol\":4010:4048  uint256 amountAfterFee = _amount - fee */\n      swap3\n      swap4\n      pop\n        /* \"contracts/Staking.sol\":4095:4102  _amount */\n      dup8\n      swap3\n        /* \"contracts/Staking.sol\":4061:4091  pool.stakedAmounts[msg.sender] */\n      swap1\n      swap2\n      swap1\n        /* \"contracts/Staking.sol\":4061:4102  pool.stakedAmounts[msg.sender] -= _amount */\n      tag_223\n      swap1\n        /* \"contracts/Staking.sol\":4095:4102  _amount */\n      dup5\n      swap1\n        /* \"contracts/Staking.sol\":4061:4102  pool.stakedAmounts[msg.sender] -= _amount */\n      tag_174\n      jump\t// in\n    tag_223:\n      swap3\n      pop\n      pop\n      dup2\n      swap1\n      sstore\n      pop\n        /* \"contracts/Staking.sol\":4133:4140  _amount */\n      dup5\n        /* \"contracts/Staking.sol\":4113:4117  pool */\n      dup5\n        /* \"contracts/Staking.sol\":4113:4129  pool.totalStaked */\n      0x01\n      add\n      0x00\n        /* \"contracts/Staking.sol\":4113:4140  pool.totalStaked -= _amount */\n      dup3\n      dup3\n      sload\n      tag_224\n      swap2\n      swap1\n      tag_174\n      jump\t// in\n    tag_224:\n      swap1\n      swap2\n      sstore\n      pop\n      pop\n        /* \"contracts/Staking.sol\":4161:4173  stakingToken */\n      sload(0x02)\n        /* \"contracts/Staking.sol\":4161:4210  stakingToken.transfer(msg.sender, amountAfterFee) */\n      mload(0x40)\n      shl(0xe0, 0xa9059cbb)\n      dup2\n      mstore\n        /* \"contracts/Staking.sol\":4183:4193  msg.sender */\n      caller\n        /* \"contracts/Staking.sol\":4161:4210  stakingToken.transfer(msg.sender, amountAfterFee) */\n      0x04\n      dup3\n      add\n        /* \"#utility.yul\":3467:3518   */\n      mstore\n        /* \"#utility.yul\":3534:3552   */\n      0x24\n      dup2\n      add\n        /* \"#utility.yul\":3527:3561   */\n      dup4\n      swap1\n      mstore\n      sub(shl(0xa0, 0x01), 0x01)\n        /* \"contracts/Staking.sol\":4161:4173  stakingToken */\n      swap1\n      swap2\n      and\n      swap1\n        /* \"contracts/Staking.sol\":4161:4182  stakingToken.transfer */\n      0xa9059cbb\n      swap1\n        /* \"#utility.yul\":3440:3458   */\n      0x44\n      add\n        /* \"contracts/Staking.sol\":4161:4210  stakingToken.transfer(msg.sender, amountAfterFee) */\n      0x20\n      mload(0x40)\n      dup1\n      dup4\n      sub\n      dup2\n      0x00\n      dup8\n      gas\n      call\n      iszero\n      dup1\n      iszero\n      tag_227\n      jumpi\n      returndatasize\n      0x00\n      dup1\n      returndatacopy\n      revert(0x00, returndatasize)\n    tag_227:\n      pop\n      pop\n      pop\n      pop\n      mload(0x40)\n      returndatasize\n      not(0x1f)\n      0x1f\n      dup3\n      add\n      and\n      dup3\n      add\n      dup1\n      0x40\n      mstore\n      pop\n      dup2\n      add\n      swap1\n      tag_228\n      swap2\n      swap1\n      tag_119\n      jump\t// in\n    tag_228:\n        /* \"contracts/Staking.sol\":4153:4230  require(stakingToken.transfer(msg.sender, amountAfterFee), \"Transfer failed\") */\n      tag_229\n      jumpi\n      mload(0x40)\n      shl(0xe5, 0x461bcd)\n      dup2\n      mstore\n        /* \"#utility.yul\":7167:7169   */\n      0x20\n        /* \"contracts/Staking.sol\":4153:4230  require(stakingToken.transfer(msg.sender, amountAfterFee), \"Transfer failed\") */\n      0x04\n      dup3\n      add\n        /* \"#utility.yul\":7149:7170   */\n      mstore\n        /* \"#utility.yul\":7206:7208   */\n      0x0f\n        /* \"#utility.yul\":7186:7204   */\n      0x24\n      dup3\n      add\n        /* \"#utility.yul\":7179:7209   */\n      mstore\n      shl(0x8a, 0x151c985b9cd9995c8819985a5b1959)\n        /* \"#utility.yul\":7225:7243   */\n      0x44\n      dup3\n      add\n        /* \"#utility.yul\":7218:7263   */\n      mstore\n        /* \"#utility.yul\":7280:7298   */\n      0x64\n      add\n        /* \"contracts/Staking.sol\":4153:4230  require(stakingToken.transfer(msg.sender, amountAfterFee), \"Transfer failed\") */\n      tag_108\n        /* \"#utility.yul\":6965:7304   */\n      jump\n        /* \"contracts/Staking.sol\":4153:4230  require(stakingToken.transfer(msg.sender, amountAfterFee), \"Transfer failed\") */\n    tag_229:\n        /* \"contracts/Staking.sol\":4249:4261  stakingToken */\n      sload(0x02)\n        /* \"contracts/Staking.sol\":4271:4280  feeWallet */\n      sload(0x03)\n        /* \"contracts/Staking.sol\":4249:4286  stakingToken.transfer(feeWallet, fee) */\n      mload(0x40)\n      shl(0xe0, 0xa9059cbb)\n      dup2\n      mstore\n      sub(shl(0xa0, 0x01), 0x01)\n        /* \"contracts/Staking.sol\":4271:4280  feeWallet */\n      swap2\n      dup3\n      and\n        /* \"contracts/Staking.sol\":4249:4286  stakingToken.transfer(feeWallet, fee) */\n      0x04\n      dup3\n      add\n        /* \"#utility.yul\":3467:3518   */\n      mstore\n        /* \"#utility.yul\":3534:3552   */\n      0x24\n      dup2\n      add\n        /* \"#utility.yul\":3527:3561   */\n      dup6\n      swap1\n      mstore\n        /* \"contracts/Staking.sol\":4249:4261  stakingToken */\n      swap2\n      and\n      swap1\n        /* \"contracts/Staking.sol\":4249:4270  stakingToken.transfer */\n      0xa9059cbb\n      swap1\n        /* \"#utility.yul\":3440:3458   */\n      0x44\n      add\n        /* \"contracts/Staking.sol\":4249:4286  stakingToken.transfer(feeWallet, fee) */\n      0x20\n      mload(0x40)\n      dup1\n      dup4\n      sub\n      dup2\n      0x00\n      dup8\n      gas\n      call\n      iszero\n      dup1\n      iszero\n      tag_233\n      jumpi\n      returndatasize\n      0x00\n      dup1\n      returndatacopy\n      revert(0x00, returndatasize)\n    tag_233:\n      pop\n      pop\n      pop\n      pop\n      mload(0x40)\n      returndatasize\n      not(0x1f)\n      0x1f\n      dup3\n      add\n      and\n      dup3\n      add\n      dup1\n      0x40\n      mstore\n      pop\n      dup2\n      add\n      swap1\n      tag_234\n      swap2\n      swap1\n      tag_119\n      jump\t// in\n    tag_234:\n        /* \"contracts/Staking.sol\":4241:4310  require(stakingToken.transfer(feeWallet, fee), \"Fee transfer failed\") */\n      tag_235\n      jumpi\n      mload(0x40)\n      shl(0xe5, 0x461bcd)\n      dup2\n      mstore\n        /* \"#utility.yul\":7511:7513   */\n      0x20\n        /* \"contracts/Staking.sol\":4241:4310  require(stakingToken.transfer(feeWallet, fee), \"Fee transfer failed\") */\n      0x04\n      dup3\n      add\n        /* \"#utility.yul\":7493:7514   */\n      mstore\n        /* \"#utility.yul\":7550:7552   */\n      0x13\n        /* \"#utility.yul\":7530:7548   */\n      0x24\n      dup3\n      add\n        /* \"#utility.yul\":7523:7553   */\n      mstore\n      shl(0x6a, 0x119959481d1c985b9cd9995c8819985a5b1959)\n        /* \"#utility.yul\":7569:7587   */\n      0x44\n      dup3\n      add\n        /* \"#utility.yul\":7562:7611   */\n      mstore\n        /* \"#utility.yul\":7628:7646   */\n      0x64\n      add\n        /* \"contracts/Staking.sol\":4241:4310  require(stakingToken.transfer(feeWallet, fee), \"Fee transfer failed\") */\n      tag_108\n        /* \"#utility.yul\":7309:7652   */\n      jump\n        /* \"contracts/Staking.sol\":4241:4310  require(stakingToken.transfer(feeWallet, fee), \"Fee transfer failed\") */\n    tag_235:\n        /* \"contracts/Staking.sol\":4328:4373  Unstaked(msg.sender, _poolId, amountAfterFee) */\n      0x40\n      dup1\n      mload\n        /* \"#utility.yul\":4379:4404   */\n      dup8\n      dup2\n      mstore\n        /* \"#utility.yul\":4435:4437   */\n      0x20\n        /* \"#utility.yul\":4420:4438   */\n      dup2\n      add\n        /* \"#utility.yul\":4413:4447   */\n      dup4\n      swap1\n      mstore\n        /* \"contracts/Staking.sol\":4337:4347  msg.sender */\n      caller\n      swap2\n        /* \"contracts/Staking.sol\":4328:4373  Unstaked(msg.sender, _poolId, amountAfterFee) */\n      0x7fc4727e062e336010f2c282598ef5f14facb3de68cf8195c2f23e1454b2b74e\n      swap2\n        /* \"#utility.yul\":4352:4370   */\n      add\n        /* \"contracts/Staking.sol\":4328:4373  Unstaked(msg.sender, _poolId, amountAfterFee) */\n      mload(0x40)\n      dup1\n      swap2\n      sub\n      swap1\n      log2\n        /* \"contracts/Staking.sol\":3502:4381  {... */\n      pop\n      pop\n      pop\n      pop\n        /* \"@openzeppelin/contracts/security/ReentrancyGuard.sol\":2303:2323  _nonReentrantAfter() */\n      tag_194\n        /* \"@openzeppelin/contracts/security/ReentrancyGuard.sol\":1716:1717  1 */\n      0x01\n        /* \"@openzeppelin/contracts/security/ReentrancyGuard.sol\":2809:2831  _status = _NOT_ENTERED */\n      dup1\n      sstore\n        /* \"@openzeppelin/contracts/security/ReentrancyGuard.sol\":2629:2838  function _nonReentrantAfter() private {... */\n      jump\n        /* \"contracts/Staking.sol\":4389:4821  function calculateReward(uint256 _poolId, address _user) public view returns (uint256) {... */\n    tag_79:\n        /* \"contracts/Staking.sol\":4467:4474  uint256 */\n      0x00\n        /* \"contracts/Staking.sol\":4507:4521  pools[_poolId] */\n      dup3\n      dup2\n      mstore\n        /* \"contracts/Staking.sol\":4507:4512  pools */\n      0x04\n        /* \"contracts/Staking.sol\":4507:4521  pools[_poolId] */\n      0x20\n      swap1\n      dup2\n      mstore\n      0x40\n      dup1\n      dup4\n      keccak256\n      sub(shl(0xa0, 0x01), 0x01)\n        /* \"contracts/Staking.sol\":4555:4580  pool.stakedAmounts[_user] */\n      dup6\n      and\n      dup5\n      mstore\n        /* \"contracts/Staking.sol\":4555:4573  pool.stakedAmounts */\n      0x03\n      dup2\n      add\n        /* \"contracts/Staking.sol\":4555:4580  pool.stakedAmounts[_user] */\n      swap1\n      swap3\n      mstore\n      dup3\n      keccak256\n      sload\n        /* \"contracts/Staking.sol\":4597:4614  stakedAmount == 0 */\n      dup1\n      dup4\n      sub\n        /* \"contracts/Staking.sol\":4593:4651  if (stakedAmount == 0) {... */\n      tag_240\n      jumpi\n        /* \"contracts/Staking.sol\":4638:4639  0 */\n      0x00\n        /* \"contracts/Staking.sol\":4631:4639  return 0 */\n      swap3\n      pop\n      pop\n      pop\n      jump(tag_239)\n        /* \"contracts/Staking.sol\":4593:4651  if (stakedAmount == 0) {... */\n    tag_240:\n      sub(shl(0xa0, 0x01), 0x01)\n        /* \"contracts/Staking.sol\":4707:4733  pool.lastStakedTime[_user] */\n      dup5\n      and\n        /* \"contracts/Staking.sol\":4663:4686  uint256 stakingDuration */\n      0x00\n        /* \"contracts/Staking.sol\":4707:4733  pool.lastStakedTime[_user] */\n      swap1\n      dup2\n      mstore\n        /* \"contracts/Staking.sol\":4707:4726  pool.lastStakedTime */\n      0x04\n      dup4\n      add\n        /* \"contracts/Staking.sol\":4707:4733  pool.lastStakedTime[_user] */\n      0x20\n      mstore\n      0x40\n      dup2\n      keccak256\n      sload\n        /* \"contracts/Staking.sol\":4689:4733  block.timestamp - pool.lastStakedTime[_user] */\n      tag_241\n      swap1\n        /* \"contracts/Staking.sol\":4689:4704  block.timestamp */\n      timestamp\n        /* \"contracts/Staking.sol\":4689:4733  block.timestamp - pool.lastStakedTime[_user] */\n      tag_174\n      jump\t// in\n    tag_241:\n        /* \"contracts/Staking.sol\":4663:4733  uint256 stakingDuration = block.timestamp - pool.lastStakedTime[_user] */\n      swap1\n      pop\n        /* \"contracts/Staking.sol\":4798:4812  365 days * 100 */\n      0xbbf81e00\n        /* \"contracts/Staking.sol\":4778:4793  stakingDuration */\n      dup2\n        /* \"contracts/Staking.sol\":4767:4771  pool */\n      dup5\n        /* \"contracts/Staking.sol\":4767:4775  pool.apy */\n      0x00\n      add\n      sload\n        /* \"contracts/Staking.sol\":4752:4764  stakedAmount */\n      dup5\n        /* \"contracts/Staking.sol\":4752:4775  stakedAmount * pool.apy */\n      tag_242\n      swap2\n      swap1\n      tag_170\n      jump\t// in\n    tag_242:\n        /* \"contracts/Staking.sol\":4752:4793  stakedAmount * pool.apy * stakingDuration */\n      tag_243\n      swap2\n      swap1\n      tag_170\n      jump\t// in\n    tag_243:\n        /* \"contracts/Staking.sol\":4751:4813  (stakedAmount * pool.apy * stakingDuration) / (365 days * 100) */\n      tag_244\n      swap2\n      swap1\n      tag_172\n      jump\t// in\n    tag_244:\n        /* \"contracts/Staking.sol\":4744:4813  return (stakedAmount * pool.apy * stakingDuration) / (365 days * 100) */\n      swap4\n      pop\n      pop\n      pop\n      pop\n        /* \"contracts/Staking.sol\":4389:4821  function calculateReward(uint256 _poolId, address _user) public view returns (uint256) {... */\n    tag_239:\n      swap3\n      swap2\n      pop\n      pop\n      jump\t// out\n        /* \"contracts/Staking.sol\":6311:6530  function getUserLastStakedTime(uint256 _poolId, address _user) external view returns (uint256) {... */\n    tag_88:\n        /* \"contracts/Staking.sol\":6397:6404  uint256 */\n      0x00\n        /* \"contracts/Staking.sol\":6435:6444  poolCount */\n      sload(0x05)\n        /* \"contracts/Staking.sol\":6425:6432  _poolId */\n      dup4\n        /* \"contracts/Staking.sol\":6425:6444  _poolId < poolCount */\n      lt\n        /* \"contracts/Staking.sol\":6417:6468  require(_poolId < poolCount, \"Pool does not exist\") */\n      tag_246\n      jumpi\n      mload(0x40)\n      shl(0xe5, 0x461bcd)\n      dup2\n      mstore\n      0x04\n      add\n      tag_108\n      swap1\n      tag_109\n      jump\t// in\n    tag_246:\n      pop\n        /* \"contracts/Staking.sol\":6486:6500  pools[_poolId] */\n      0x00\n      dup3\n      dup2\n      mstore\n        /* \"contracts/Staking.sol\":6486:6491  pools */\n      0x04\n        /* \"contracts/Staking.sol\":6486:6500  pools[_poolId] */\n      0x20\n      dup2\n      dup2\n      mstore\n      0x40\n      dup1\n      dup5\n      keccak256\n      sub(shl(0xa0, 0x01), 0x01)\n        /* \"contracts/Staking.sol\":6486:6522  pools[_poolId].lastStakedTime[_user] */\n      dup7\n      and\n      dup6\n      mstore\n        /* \"contracts/Staking.sol\":6486:6515  pools[_poolId].lastStakedTime */\n      swap1\n      swap3\n      add\n        /* \"contracts/Staking.sol\":6486:6522  pools[_poolId].lastStakedTime[_user] */\n      swap1\n      mstore\n      swap1\n      keccak256\n      sload\n        /* \"contracts/Staking.sol\":6311:6530  function getUserLastStakedTime(uint256 _poolId, address _user) external view returns (uint256) {... */\n      swap3\n      swap2\n      pop\n      pop\n      jump\t// out\n        /* \"contracts/Staking.sol\":6087:6303  function getUserStakedAmount(uint256 _poolId, address _user) external view returns (uint256) {... */\n    tag_92:\n        /* \"contracts/Staking.sol\":6171:6178  uint256 */\n      0x00\n        /* \"contracts/Staking.sol\":6209:6218  poolCount */\n      sload(0x05)\n        /* \"contracts/Staking.sol\":6199:6206  _poolId */\n      dup4\n        /* \"contracts/Staking.sol\":6199:6218  _poolId < poolCount */\n      lt\n        /* \"contracts/Staking.sol\":6191:6242  require(_poolId < poolCount, \"Pool does not exist\") */\n      tag_249\n      jumpi\n      mload(0x40)\n      shl(0xe5, 0x461bcd)\n      dup2\n      mstore\n      0x04\n      add\n      tag_108\n      swap1\n      tag_109\n      jump\t// in\n    tag_249:\n      pop\n        /* \"contracts/Staking.sol\":6260:6274  pools[_poolId] */\n      0x00\n      dup3\n      dup2\n      mstore\n        /* \"contracts/Staking.sol\":6260:6265  pools */\n      0x04\n        /* \"contracts/Staking.sol\":6260:6274  pools[_poolId] */\n      0x20\n      swap1\n      dup2\n      mstore\n      0x40\n      dup1\n      dup4\n      keccak256\n      sub(shl(0xa0, 0x01), 0x01)\n        /* \"contracts/Staking.sol\":6260:6295  pools[_poolId].stakedAmounts[_user] */\n      dup6\n      and\n      dup5\n      mstore\n        /* \"contracts/Staking.sol\":6260:6288  pools[_poolId].stakedAmounts */\n      0x03\n      add\n        /* \"contracts/Staking.sol\":6260:6295  pools[_poolId].stakedAmounts[_user] */\n      swap1\n      swap2\n      mstore\n      swap1\n      keccak256\n      sload\n        /* \"contracts/Staking.sol\":6087:6303  function getUserStakedAmount(uint256 _poolId, address _user) external view returns (uint256) {... */\n      swap3\n      swap2\n      pop\n      pop\n      jump\t// out\n        /* \"@openzeppelin/contracts/access/Ownable.sol\":2543:2758  function transferOwnership(address newOwner) public virtual onlyOwner {... */\n    tag_99:\n        /* \"@openzeppelin/contracts/access/Ownable.sol\":1531:1544  _checkOwner() */\n      tag_252\n        /* \"@openzeppelin/contracts/access/Ownable.sol\":1531:1542  _checkOwner */\n      tag_132\n        /* \"@openzeppelin/contracts/access/Ownable.sol\":1531:1544  _checkOwner() */\n      jump\t// in\n    tag_252:\n      sub(shl(0xa0, 0x01), 0x01)\n        /* \"@openzeppelin/contracts/access/Ownable.sol\":2627:2649  newOwner == address(0) */\n      dup2\n      and\n        /* \"@openzeppelin/contracts/access/Ownable.sol\":2623:2714  if (newOwner == address(0)) {... */\n      tag_254\n      jumpi\n        /* \"@openzeppelin/contracts/access/Ownable.sol\":2672:2703  OwnableInvalidOwner(address(0)) */\n      mload(0x40)\n      shl(0xe0, 0x1e4fbdf7)\n      dup2\n      mstore\n        /* \"@openzeppelin/contracts/access/Ownable.sol\":2700:2701  0 */\n      0x00\n        /* \"@openzeppelin/contracts/access/Ownable.sol\":2672:2703  OwnableInvalidOwner(address(0)) */\n      0x04\n      dup3\n      add\n        /* \"#utility.yul\":1420:1471   */\n      mstore\n        /* \"#utility.yul\":1393:1411   */\n      0x24\n      add\n        /* \"@openzeppelin/contracts/access/Ownable.sol\":2672:2703  OwnableInvalidOwner(address(0)) */\n      tag_108\n        /* \"#utility.yul\":1260:1477   */\n      jump\n        /* \"@openzeppelin/contracts/access/Ownable.sol\":2623:2714  if (newOwner == address(0)) {... */\n    tag_254:\n        /* \"@openzeppelin/contracts/access/Ownable.sol\":2723:2751  _transferOwnership(newOwner) */\n      tag_125\n        /* \"@openzeppelin/contracts/access/Ownable.sol\":2742:2750  newOwner */\n      dup2\n        /* \"@openzeppelin/contracts/access/Ownable.sol\":2723:2741  _transferOwnership */\n      tag_156\n        /* \"@openzeppelin/contracts/access/Ownable.sol\":2723:2751  _transferOwnership(newOwner) */\n      jump\t// in\n        /* \"@openzeppelin/contracts/security/ReentrancyGuard.sol\":2336:2623  function _nonReentrantBefore() private {... */\n    tag_105:\n        /* \"@openzeppelin/contracts/security/ReentrancyGuard.sol\":1759:1760  2 */\n      0x02\n        /* \"@openzeppelin/contracts/security/ReentrancyGuard.sol\":2468:2475  _status */\n      sload(0x01)\n        /* \"@openzeppelin/contracts/security/ReentrancyGuard.sol\":2468:2487  _status != _ENTERED */\n      sub\n        /* \"@openzeppelin/contracts/security/ReentrancyGuard.sol\":2460:2523  require(_status != _ENTERED, \"ReentrancyGuard: reentrant call\") */\n      tag_258\n      jumpi\n      mload(0x40)\n      shl(0xe5, 0x461bcd)\n      dup2\n      mstore\n        /* \"#utility.yul\":8698:8700   */\n      0x20\n        /* \"@openzeppelin/contracts/security/ReentrancyGuard.sol\":2460:2523  require(_status != _ENTERED, \"ReentrancyGuard: reentrant call\") */\n      0x04\n      dup3\n      add\n        /* \"#utility.yul\":8680:8701   */\n      mstore\n        /* \"#utility.yul\":8737:8739   */\n      0x1f\n        /* \"#utility.yul\":8717:8735   */\n      0x24\n      dup3\n      add\n        /* \"#utility.yul\":8710:8740   */\n      mstore\n        /* \"#utility.yul\":8776:8809   */\n      0x5265656e7472616e637947756172643a207265656e7472616e742063616c6c00\n        /* \"#utility.yul\":8756:8774   */\n      0x44\n      dup3\n      add\n        /* \"#utility.yul\":8749:8810   */\n      mstore\n        /* \"#utility.yul\":8827:8845   */\n      0x64\n      add\n        /* \"@openzeppelin/contracts/security/ReentrancyGuard.sol\":2460:2523  require(_status != _ENTERED, \"ReentrancyGuard: reentrant call\") */\n      tag_108\n        /* \"#utility.yul\":8496:8851   */\n      jump\n        /* \"@openzeppelin/contracts/security/ReentrancyGuard.sol\":2460:2523  require(_status != _ENTERED, \"ReentrancyGuard: reentrant call\") */\n    tag_258:\n        /* \"@openzeppelin/contracts/security/ReentrancyGuard.sol\":1759:1760  2 */\n      0x02\n        /* \"@openzeppelin/contracts/security/ReentrancyGuard.sol\":2598:2605  _status */\n      0x01\n        /* \"@openzeppelin/contracts/security/ReentrancyGuard.sol\":2598:2616  _status = _ENTERED */\n      sstore\n        /* \"@openzeppelin/contracts/security/ReentrancyGuard.sol\":2336:2623  function _nonReentrantBefore() private {... */\n      jump\t// out\n        /* \"@openzeppelin/contracts/access/Ownable.sol\":1796:1958  function _checkOwner() internal view virtual {... */\n    tag_132:\n        /* \"@openzeppelin/contracts/access/Ownable.sol\":1684:1691  address */\n      0x00\n        /* \"@openzeppelin/contracts/access/Ownable.sol\":1710:1716  _owner */\n      sload\n      sub(shl(0xa0, 0x01), 0x01)\n      and\n        /* \"@openzeppelin/contracts/utils/Context.sol\":735:745  msg.sender */\n      caller\n        /* \"@openzeppelin/contracts/access/Ownable.sol\":1855:1878  owner() != _msgSender() */\n      eq\n        /* \"@openzeppelin/contracts/access/Ownable.sol\":1851:1952  if (owner() != _msgSender()) {... */\n      tag_155\n      jumpi\n        /* \"@openzeppelin/contracts/access/Ownable.sol\":1901:1941  OwnableUnauthorizedAccount(_msgSender()) */\n      mload(0x40)\n      shl(0xe0, 0x118cdaa7)\n      dup2\n      mstore\n        /* \"@openzeppelin/contracts/utils/Context.sol\":735:745  msg.sender */\n      caller\n        /* \"@openzeppelin/contracts/access/Ownable.sol\":1901:1941  OwnableUnauthorizedAccount(_msgSender()) */\n      0x04\n      dup3\n      add\n        /* \"#utility.yul\":1420:1471   */\n      mstore\n        /* \"#utility.yul\":1393:1411   */\n      0x24\n      add\n        /* \"@openzeppelin/contracts/access/Ownable.sol\":1901:1941  OwnableUnauthorizedAccount(_msgSender()) */\n      tag_108\n        /* \"#utility.yul\":1260:1477   */\n      jump\n        /* \"@openzeppelin/contracts/access/Ownable.sol\":2912:3099  function _transferOwnership(address newOwner) internal virtual {... */\n    tag_156:\n        /* \"@openzeppelin/contracts/access/Ownable.sol\":2985:3001  address oldOwner */\n      0x00\n        /* \"@openzeppelin/contracts/access/Ownable.sol\":3004:3010  _owner */\n      dup1\n      sload\n      sub(shl(0xa0, 0x01), 0x01)\n        /* \"@openzeppelin/contracts/access/Ownable.sol\":3020:3037  _owner = newOwner */\n      dup4\n      dup2\n      and\n      not(sub(shl(0xa0, 0x01), 0x01))\n      dup4\n      and\n      dup2\n      or\n      dup5\n      sstore\n        /* \"@openzeppelin/contracts/access/Ownable.sol\":3052:3092  OwnershipTransferred(oldOwner, newOwner) */\n      mload(0x40)\n        /* \"@openzeppelin/contracts/access/Ownable.sol\":3004:3010  _owner */\n      swap2\n      swap1\n      swap3\n      and\n      swap3\n      dup4\n      swap2\n        /* \"@openzeppelin/contracts/access/Ownable.sol\":3052:3092  OwnershipTransferred(oldOwner, newOwner) */\n      0x8be0079c531659141344cd1fd0a4f28419497f9722a3daafe3b4186f6b6457e0\n      swap2\n        /* \"@openzeppelin/contracts/access/Ownable.sol\":2985:3001  address oldOwner */\n      swap1\n        /* \"@openzeppelin/contracts/access/Ownable.sol\":3052:3092  OwnershipTransferred(oldOwner, newOwner) */\n      log3\n        /* \"@openzeppelin/contracts/access/Ownable.sol\":2975:3099  {... */\n      pop\n        /* \"@openzeppelin/contracts/access/Ownable.sol\":2912:3099  function _transferOwnership(address newOwner) internal virtual {... */\n      pop\n      jump\t// out\n        /* \"#utility.yul\":14:240   */\n    tag_29:\n        /* \"#utility.yul\":73:79   */\n      0x00\n        /* \"#utility.yul\":126:128   */\n      0x20\n        /* \"#utility.yul\":114:123   */\n      dup3\n        /* \"#utility.yul\":105:112   */\n      dup5\n        /* \"#utility.yul\":101:124   */\n      sub\n        /* \"#utility.yul\":97:129   */\n      slt\n        /* \"#utility.yul\":94:146   */\n      iszero\n      tag_275\n      jumpi\n        /* \"#utility.yul\":142:143   */\n      0x00\n        /* \"#utility.yul\":139:140   */\n      dup1\n        /* \"#utility.yul\":132:144   */\n      revert\n        /* \"#utility.yul\":94:146   */\n    tag_275:\n      pop\n        /* \"#utility.yul\":187:210   */\n      calldataload\n      swap2\n        /* \"#utility.yul\":14:240   */\n      swap1\n      pop\n      jump\t// out\n        /* \"#utility.yul\":595:768   */\n    tag_271:\n        /* \"#utility.yul\":663:683   */\n      dup1\n      calldataload\n      sub(shl(0xa0, 0x01), 0x01)\n        /* \"#utility.yul\":712:743   */\n      dup2\n      and\n        /* \"#utility.yul\":702:744   */\n      dup2\n      eq\n        /* \"#utility.yul\":692:762   */\n      tag_278\n      jumpi\n        /* \"#utility.yul\":758:759   */\n      0x00\n        /* \"#utility.yul\":755:756   */\n      dup1\n        /* \"#utility.yul\":748:760   */\n      revert\n        /* \"#utility.yul\":692:762   */\n    tag_278:\n        /* \"#utility.yul\":595:768   */\n      swap2\n      swap1\n      pop\n      jump\t// out\n        /* \"#utility.yul\":773:1073   */\n    tag_38:\n        /* \"#utility.yul\":841:847   */\n      0x00\n        /* \"#utility.yul\":849:855   */\n      dup1\n        /* \"#utility.yul\":902:904   */\n      0x40\n        /* \"#utility.yul\":890:899   */\n      dup4\n        /* \"#utility.yul\":881:888   */\n      dup6\n        /* \"#utility.yul\":877:900   */\n      sub\n        /* \"#utility.yul\":873:905   */\n      slt\n        /* \"#utility.yul\":870:922   */\n      iszero\n      tag_280\n      jumpi\n        /* \"#utility.yul\":918:919   */\n      0x00\n        /* \"#utility.yul\":915:916   */\n      dup1\n        /* \"#utility.yul\":908:920   */\n      revert\n        /* \"#utility.yul\":870:922   */\n    tag_280:\n        /* \"#utility.yul\":963:986   */\n      dup3\n      calldataload\n      swap2\n      pop\n        /* \"#utility.yul\":1029:1067   */\n      tag_281\n        /* \"#utility.yul\":1063:1065   */\n      0x20\n        /* \"#utility.yul\":1048:1066   */\n      dup5\n      add\n        /* \"#utility.yul\":1029:1067   */\n      tag_271\n      jump\t// in\n    tag_281:\n        /* \"#utility.yul\":1019:1067   */\n      swap1\n      pop\n        /* \"#utility.yul\":773:1073   */\n      swap3\n      pop\n      swap3\n      swap1\n      pop\n      jump\t// out\n        /* \"#utility.yul\":1482:1828   */\n    tag_61:\n        /* \"#utility.yul\":1550:1556   */\n      0x00\n        /* \"#utility.yul\":1558:1564   */\n      dup1\n        /* \"#utility.yul\":1611:1613   */\n      0x40\n        /* \"#utility.yul\":1599:1608   */\n      dup4\n        /* \"#utility.yul\":1590:1597   */\n      dup6\n        /* \"#utility.yul\":1586:1609   */\n      sub\n        /* \"#utility.yul\":1582:1614   */\n      slt\n        /* \"#utility.yul\":1579:1631   */\n      iszero\n      tag_285\n      jumpi\n        /* \"#utility.yul\":1627:1628   */\n      0x00\n        /* \"#utility.yul\":1624:1625   */\n      dup1\n        /* \"#utility.yul\":1617:1629   */\n      revert\n        /* \"#utility.yul\":1579:1631   */\n    tag_285:\n      pop\n      pop\n        /* \"#utility.yul\":1672:1695   */\n      dup1\n      calldataload\n      swap3\n        /* \"#utility.yul\":1792:1794   */\n      0x20\n        /* \"#utility.yul\":1777:1795   */\n      swap1\n      swap2\n      add\n        /* \"#utility.yul\":1764:1796   */\n      calldataload\n      swap2\n      pop\n        /* \"#utility.yul\":1482:1828   */\n      jump\t// out\n        /* \"#utility.yul\":2041:2227   */\n    tag_72:\n        /* \"#utility.yul\":2100:2106   */\n      0x00\n        /* \"#utility.yul\":2153:2155   */\n      0x20\n        /* \"#utility.yul\":2141:2150   */\n      dup3\n        /* \"#utility.yul\":2132:2139   */\n      dup5\n        /* \"#utility.yul\":2128:2151   */\n      sub\n        /* \"#utility.yul\":2124:2156   */\n      slt\n        /* \"#utility.yul\":2121:2173   */\n      iszero\n      tag_288\n      jumpi\n        /* \"#utility.yul\":2169:2170   */\n      0x00\n        /* \"#utility.yul\":2166:2167   */\n      dup1\n        /* \"#utility.yul\":2159:2171   */\n      revert\n        /* \"#utility.yul\":2121:2173   */\n    tag_288:\n        /* \"#utility.yul\":2192:2221   */\n      tag_289\n        /* \"#utility.yul\":2211:2220   */\n      dup3\n        /* \"#utility.yul\":2192:2221   */\n      tag_271\n      jump\t// in\n    tag_289:\n        /* \"#utility.yul\":2182:2221   */\n      swap4\n        /* \"#utility.yul\":2041:2227   */\n      swap3\n      pop\n      pop\n      pop\n      jump\t// out\n        /* \"#utility.yul\":2596:2939   */\n    tag_109:\n        /* \"#utility.yul\":2798:2800   */\n      0x20\n        /* \"#utility.yul\":2780:2801   */\n      dup1\n      dup3\n      mstore\n        /* \"#utility.yul\":2837:2839   */\n      0x13\n        /* \"#utility.yul\":2817:2835   */\n      swap1\n      dup3\n      add\n        /* \"#utility.yul\":2810:2840   */\n      mstore\n      shl(0x6a, 0x141bdbdb08191bd95cc81b9bdd08195e1a5cdd)\n        /* \"#utility.yul\":2871:2873   */\n      0x40\n        /* \"#utility.yul\":2856:2874   */\n      dup3\n      add\n        /* \"#utility.yul\":2849:2898   */\n      mstore\n        /* \"#utility.yul\":2930:2932   */\n      0x60\n        /* \"#utility.yul\":2915:2933   */\n      add\n      swap1\n        /* \"#utility.yul\":2596:2939   */\n      jump\t// out\n        /* \"#utility.yul\":3572:3849   */\n    tag_119:\n        /* \"#utility.yul\":3639:3645   */\n      0x00\n        /* \"#utility.yul\":3692:3694   */\n      0x20\n        /* \"#utility.yul\":3680:3689   */\n      dup3\n        /* \"#utility.yul\":3671:3678   */\n      dup5\n        /* \"#utility.yul\":3667:3690   */\n      sub\n        /* \"#utility.yul\":3663:3695   */\n      slt\n        /* \"#utility.yul\":3660:3712   */\n      iszero\n      tag_295\n      jumpi\n        /* \"#utility.yul\":3708:3709   */\n      0x00\n        /* \"#utility.yul\":3705:3706   */\n      dup1\n        /* \"#utility.yul\":3698:3710   */\n      revert\n        /* \"#utility.yul\":3660:3712   */\n    tag_295:\n        /* \"#utility.yul\":3740:3749   */\n      dup2\n        /* \"#utility.yul\":3734:3750   */\n      mload\n        /* \"#utility.yul\":3793:3798   */\n      dup1\n        /* \"#utility.yul\":3786:3799   */\n      iszero\n        /* \"#utility.yul\":3779:3800   */\n      iszero\n        /* \"#utility.yul\":3772:3777   */\n      dup2\n        /* \"#utility.yul\":3769:3801   */\n      eq\n        /* \"#utility.yul\":3759:3819   */\n      tag_289\n      jumpi\n        /* \"#utility.yul\":3815:3816   */\n      0x00\n        /* \"#utility.yul\":3812:3813   */\n      dup1\n        /* \"#utility.yul\":3805:3817   */\n      revert\n        /* \"#utility.yul\":5081:5208   */\n    tag_272:\n        /* \"#utility.yul\":5142:5152   */\n      0x4e487b71\n        /* \"#utility.yul\":5137:5140   */\n      0xe0\n        /* \"#utility.yul\":5133:5153   */\n      shl\n        /* \"#utility.yul\":5130:5131   */\n      0x00\n        /* \"#utility.yul\":5123:5154   */\n      mstore\n        /* \"#utility.yul\":5173:5177   */\n      0x11\n        /* \"#utility.yul\":5170:5171   */\n      0x04\n        /* \"#utility.yul\":5163:5178   */\n      mstore\n        /* \"#utility.yul\":5197:5201   */\n      0x24\n        /* \"#utility.yul\":5194:5195   */\n      0x00\n        /* \"#utility.yul\":5187:5202   */\n      revert\n        /* \"#utility.yul\":5213:5348   */\n    tag_141:\n        /* \"#utility.yul\":5252:5255   */\n      0x00\n        /* \"#utility.yul\":5273:5290   */\n      0x01\n      dup3\n      add\n        /* \"#utility.yul\":5270:5313   */\n      tag_304\n      jumpi\n        /* \"#utility.yul\":5293:5311   */\n      tag_304\n      tag_272\n      jump\t// in\n    tag_304:\n      pop\n        /* \"#utility.yul\":5340:5341   */\n      0x01\n        /* \"#utility.yul\":5329:5342   */\n      add\n      swap1\n        /* \"#utility.yul\":5213:5348   */\n      jump\t// out\n        /* \"#utility.yul\":6061:6229   */\n    tag_170:\n        /* \"#utility.yul\":6134:6143   */\n      dup1\n      dup3\n      mul\n        /* \"#utility.yul\":6165:6174   */\n      dup2\n      iszero\n        /* \"#utility.yul\":6182:6197   */\n      dup3\n      dup3\n      div\n        /* \"#utility.yul\":6176:6198   */\n      dup5\n      eq\n        /* \"#utility.yul\":6162:6199   */\n      or\n        /* \"#utility.yul\":6152:6223   */\n      tag_239\n      jumpi\n        /* \"#utility.yul\":6203:6221   */\n      tag_239\n      tag_272\n      jump\t// in\n        /* \"#utility.yul\":6234:6451   */\n    tag_172:\n        /* \"#utility.yul\":6274:6275   */\n      0x00\n        /* \"#utility.yul\":6300:6301   */\n      dup3\n        /* \"#utility.yul\":6290:6422   */\n      tag_311\n      jumpi\n        /* \"#utility.yul\":6344:6354   */\n      0x4e487b71\n        /* \"#utility.yul\":6339:6342   */\n      0xe0\n        /* \"#utility.yul\":6335:6355   */\n      shl\n        /* \"#utility.yul\":6332:6333   */\n      0x00\n        /* \"#utility.yul\":6325:6356   */\n      mstore\n        /* \"#utility.yul\":6379:6383   */\n      0x12\n        /* \"#utility.yul\":6376:6377   */\n      0x04\n        /* \"#utility.yul\":6369:6384   */\n      mstore\n        /* \"#utility.yul\":6407:6411   */\n      0x24\n        /* \"#utility.yul\":6404:6405   */\n      0x00\n        /* \"#utility.yul\":6397:6412   */\n      revert\n        /* \"#utility.yul\":6290:6422   */\n    tag_311:\n      pop\n        /* \"#utility.yul\":6436:6445   */\n      div\n      swap1\n        /* \"#utility.yul\":6234:6451   */\n      jump\t// out\n        /* \"#utility.yul\":6456:6584   */\n    tag_174:\n        /* \"#utility.yul\":6523:6532   */\n      dup2\n      dup2\n      sub\n        /* \"#utility.yul\":6544:6555   */\n      dup2\n      dup2\n      gt\n        /* \"#utility.yul\":6541:6578   */\n      iszero\n      tag_239\n      jumpi\n        /* \"#utility.yul\":6558:6576   */\n      tag_239\n      tag_272\n      jump\t// in\n        /* \"#utility.yul\":7657:7782   */\n    tag_191:\n        /* \"#utility.yul\":7722:7731   */\n      dup1\n      dup3\n      add\n        /* \"#utility.yul\":7743:7753   */\n      dup1\n      dup3\n      gt\n        /* \"#utility.yul\":7740:7776   */\n      iszero\n      tag_239\n      jumpi\n        /* \"#utility.yul\":7756:7774   */\n      tag_239\n      tag_272\n      jump\t// in\n\n    auxdata: 0xa26469706673582212205ce8940413ecb077250abe281c0bdbfbd357062f93dabaf13a7ec8acd98fdf1364736f6c634300081c0033\n}\n",
				"bytecode": {
					"linkReferences": {},
					"object": "608060405234801561001057600080fd5b5060405161133c38038061133c83398101604081905261002f916100dd565b338061005557604051631e4fbdf760e01b81526000600482015260240160405180910390fd5b61005e8161008d565b5060018055600280546001600160a01b0319166001600160a01b0392909216919091179055600060055561010d565b600080546001600160a01b038381166001600160a01b0319831681178455604051919092169283917f8be0079c531659141344cd1fd0a4f28419497f9722a3daafe3b4186f6b6457e09190a35050565b6000602082840312156100ef57600080fd5b81516001600160a01b038116811461010657600080fd5b9392505050565b6112208061011c6000396000f3fe608060405234801561001057600080fd5b50600436106101375760003560e01c80638da5cb5b116100b8578063ac4afa381161007c578063ac4afa3814610272578063b684edcf146102ce578063d13d8258146102e1578063f25f4b56146102f4578063f2fde38b14610307578063f525cb681461031a57600080fd5b80638da5cb5b146102205780638eec5d701461023157806390d49b9d146102395780639e2c8a5b1461024c578063a18f07a01461025f57600080fd5b80636bbf758d116100ff5780636bbf758d146101c95780636e99d52f146101d1578063715018a6146101da57806372f702f3146101e25780637b0472f01461020d57600080fd5b80630962ef791461013c5780632f380b351461015157806333ba88821461018c5780633a4ae6691461019f5780634d333a21146101b6575b600080fd5b61014f61014a366004611068565b610323565b005b61016461015f366004611068565b6104d1565b604080519384526001600160a01b039092166020840152908201526060015b60405180910390f35b61014f61019a36600461109d565b610525565b6101a86101f481565b604051908152602001610183565b61014f6101c4366004611068565b61060a565b6101a860c881565b6101a861384081565b61014f6106bd565b6002546101f5906001600160a01b031681565b6040516001600160a01b039091168152602001610183565b61014f61021b3660046110c9565b6106d1565b6000546001600160a01b03166101f5565b6005546101a8565b61014f6102473660046110eb565b6109e6565b61014f61025a3660046110c9565b610a5a565b6101a861026d36600461109d565b610e22565b6102aa610280366004611068565b6004602052600090815260409020805460018201546002909201549091906001600160a01b031683565b6040805193845260208401929092526001600160a01b031690820152606001610183565b6101a86102dc36600461109d565b610eb8565b6101a86102ef36600461109d565b610f07565b6003546101f5906001600160a01b031681565b61014f6103153660046110eb565b610f57565b6101a860055481565b61032b610f92565b60055481106103555760405162461bcd60e51b815260040161034c9061110d565b60405180910390fd5b60008181526004602052604081209061036e8333610e22565b9050600081116103b75760405162461bcd60e51b81526020600482015260146024820152734e6f207265776172647320617661696c61626c6560601b604482015260640161034c565b33600081815260048481016020526040918290204290556002850154915163a9059cbb60e01b815290810192909252602482018390526001600160a01b03169063a9059cbb906044016020604051808303816000875af115801561041f573d6000803e3d6000fd5b505050506040513d601f19601f82011682018060405250810190610443919061113a565b6104885760405162461bcd60e51b815260206004820152601660248201527514995dd85c99081d1c985b9cd9995c8819985a5b195960521b604482015260640161034c565b604080518481526020810183905233917ff01da32686223933d8a18a391060918c7f11a3648639edd87ae013e2e2731743910160405180910390a250506104ce60018055565b50565b600080600060055484106104f75760405162461bcd60e51b815260040161034c9061110d565b50505060009081526004602052604090208054600282015460019092015490926001600160a01b0390921691565b61052d610feb565b806001600160a01b0381166105765760405162461bcd60e51b815260206004820152600f60248201526e496e76616c6964206164647265737360881b604482015260640161034c565b6005805460009081526004602090815260408083208781556002810180546001600160a01b0319166001600160a01b038916908117909155600182019490945593548151888152928301939093527fae9596825f83aa972e67ed4a3ac74d2eb98b77ee23453868db5dc3b08a0316ca910160405180910390a2600580549060006105ff83611172565b919050555050505050565b610612610feb565b60055481106106335760405162461bcd60e51b815260040161034c9061110d565b6000818152600460205260409020600181015469152d02c7e14af68000001161065f57601e8155610682565b690a968163f0a57b40000081600101541061067d5760648155610682565b60c881555b805460405190815282907f9c4893e20d6432767854bfaa7ead2c90ad7644e9440c6861a383f63e4fb2803e9060200160405180910390a25050565b6106c5610feb565b6106cf6000611018565b565b6106d9610f92565b6003546001600160a01b03166107265760405162461bcd60e51b8152602060048201526012602482015271119959481dd85b1b195d081b9bdd081cd95d60721b604482015260640161034c565b60055482106107475760405162461bcd60e51b815260040161034c9061110d565b600081116107975760405162461bcd60e51b815260206004820181905260248201527f416d6f756e74206d7573742062652067726561746572207468616e207a65726f604482015260640161034c565b6000828152600460205260408120906127106107b460c88561118b565b6107be91906111a2565b905060006107cc82856111c4565b6002546040516323b872dd60e01b8152336004820152306024820152604481018390529192506001600160a01b0316906323b872dd906064016020604051808303816000875af1158015610824573d6000803e3d6000fd5b505050506040513d601f19601f82011682018060405250810190610848919061113a565b6108865760405162461bcd60e51b815260206004820152600f60248201526e151c985b9cd9995c8819985a5b1959608a1b604482015260640161034c565b6002546003546040516323b872dd60e01b81523360048201526001600160a01b039182166024820152604481018590529116906323b872dd906064016020604051808303816000875af11580156108e1573d6000803e3d6000fd5b505050506040513d601f19601f82011682018060405250810190610905919061113a565b6109475760405162461bcd60e51b8152602060048201526013602482015272119959481d1c985b9cd9995c8819985a5b1959606a1b604482015260640161034c565b336000908152600384016020526040812080548392906109689084906111d7565b925050819055508083600101600082825461098391906111d7565b909155505033600081815260048501602090815260409182902042905581518881529081018490527f1449c6dd7851abc30abf37f57715f492010519147cc2652fbc38202c18a6ee90910160405180910390a25050506109e260018055565b5050565b6109ee610feb565b806001600160a01b038116610a375760405162461bcd60e51b815260206004820152600f60248201526e496e76616c6964206164647265737360881b604482015260640161034c565b50600380546001600160a01b0319166001600160a01b0392909216919091179055565b610a62610f92565b6003546001600160a01b0316610aaf5760405162461bcd60e51b8152602060048201526012602482015271119959481dd85b1b195d081b9bdd081cd95d60721b604482015260640161034c565b6005548210610ad05760405162461bcd60e51b815260040161034c9061110d565b60008111610b205760405162461bcd60e51b815260206004820181905260248201527f416d6f756e74206d7573742062652067726561746572207468616e207a65726f604482015260640161034c565b6000828152600460209081526040808320338452600381019092529091205482811015610b8f5760405162461bcd60e51b815260206004820152601b60248201527f496e73756666696369656e74207374616b65642062616c616e63650000000000604482015260640161034c565b336000908152600483016020526040902054610bae90613840906111d7565b421015610bfd5760405162461bcd60e51b815260206004820152601860248201527f436f6f6c646f776e20706572696f64206e6f74206f7665720000000000000000604482015260640161034c565b6000612710610c0e6101f48661118b565b610c1891906111a2565b90506000610c2682866111c4565b336000908152600386016020526040812080549293508792909190610c4c9084906111c4565b9250508190555084846001016000828254610c6791906111c4565b909155505060025460405163a9059cbb60e01b8152336004820152602481018390526001600160a01b039091169063a9059cbb906044016020604051808303816000875af1158015610cbd573d6000803e3d6000fd5b505050506040513d601f19601f82011682018060405250810190610ce1919061113a565b610d1f5760405162461bcd60e51b815260206004820152600f60248201526e151c985b9cd9995c8819985a5b1959608a1b604482015260640161034c565b60025460035460405163a9059cbb60e01b81526001600160a01b0391821660048201526024810185905291169063a9059cbb906044016020604051808303816000875af1158015610d74573d6000803e3d6000fd5b505050506040513d601f19601f82011682018060405250810190610d98919061113a565b610dda5760405162461bcd60e51b8152602060048201526013602482015272119959481d1c985b9cd9995c8819985a5b1959606a1b604482015260640161034c565b604080518781526020810183905233917f7fc4727e062e336010f2c282598ef5f14facb3de68cf8195c2f23e1454b2b74e910160405180910390a2505050506109e260018055565b60008281526004602090815260408083206001600160a01b038516845260038101909252822054808303610e5b57600092505050610eb2565b6001600160a01b0384166000908152600483016020526040812054610e8090426111c4565b905063bbf81e0081846000015484610e98919061118b565b610ea2919061118b565b610eac91906111a2565b93505050505b92915050565b60006005548310610edb5760405162461bcd60e51b815260040161034c9061110d565b5060008281526004602081815260408084206001600160a01b0386168552909201905290205492915050565b60006005548310610f2a5760405162461bcd60e51b815260040161034c9061110d565b5060008281526004602090815260408083206001600160a01b038516845260030190915290205492915050565b610f5f610feb565b6001600160a01b038116610f8957604051631e4fbdf760e01b81526000600482015260240161034c565b6104ce81611018565b600260015403610fe45760405162461bcd60e51b815260206004820152601f60248201527f5265656e7472616e637947756172643a207265656e7472616e742063616c6c00604482015260640161034c565b6002600155565b6000546001600160a01b031633146106cf5760405163118cdaa760e01b815233600482015260240161034c565b600080546001600160a01b038381166001600160a01b0319831681178455604051919092169283917f8be0079c531659141344cd1fd0a4f28419497f9722a3daafe3b4186f6b6457e09190a35050565b60006020828403121561107a57600080fd5b5035919050565b80356001600160a01b038116811461109857600080fd5b919050565b600080604083850312156110b057600080fd5b823591506110c060208401611081565b90509250929050565b600080604083850312156110dc57600080fd5b50508035926020909101359150565b6000602082840312156110fd57600080fd5b61110682611081565b9392505050565b602080825260139082015272141bdbdb08191bd95cc81b9bdd08195e1a5cdd606a1b604082015260600190565b60006020828403121561114c57600080fd5b8151801515811461110657600080fd5b634e487b7160e01b600052601160045260246000fd5b6000600182016111845761118461115c565b5060010190565b8082028115828204841417610eb257610eb261115c565b6000826111bf57634e487b7160e01b600052601260045260246000fd5b500490565b81810381811115610eb257610eb261115c565b80820180821115610eb257610eb261115c56fea26469706673582212205ce8940413ecb077250abe281c0bdbfbd357062f93dabaf13a7ec8acd98fdf1364736f6c634300081c0033",
					"opcodes": "PUSH1 0x80 PUSH1 0x40 MSTORE CALLVALUE DUP1 ISZERO PUSH2 0x10 JUMPI PUSH1 0x0 DUP1 REVERT JUMPDEST POP PUSH1 0x40 MLOAD PUSH2 0x133C CODESIZE SUB DUP1 PUSH2 0x133C DUP4 CODECOPY DUP2 ADD PUSH1 0x40 DUP2 SWAP1 MSTORE PUSH2 0x2F SWAP2 PUSH2 0xDD JUMP JUMPDEST CALLER DUP1 PUSH2 0x55 JUMPI PUSH1 0x40 MLOAD PUSH4 0x1E4FBDF7 PUSH1 0xE0 SHL DUP2 MSTORE PUSH1 0x0 PUSH1 0x4 DUP3 ADD MSTORE PUSH1 0x24 ADD PUSH1 0x40 MLOAD DUP1 SWAP2 SUB SWAP1 REVERT JUMPDEST PUSH2 0x5E DUP2 PUSH2 0x8D JUMP JUMPDEST POP PUSH1 0x1 DUP1 SSTORE PUSH1 0x2 DUP1 SLOAD PUSH1 0x1 PUSH1 0x1 PUSH1 0xA0 SHL SUB NOT AND PUSH1 0x1 PUSH1 0x1 PUSH1 0xA0 SHL SUB SWAP3 SWAP1 SWAP3 AND SWAP2 SWAP1 SWAP2 OR SWAP1 SSTORE PUSH1 0x0 PUSH1 0x5 SSTORE PUSH2 0x10D JUMP JUMPDEST PUSH1 0x0 DUP1 SLOAD PUSH1 0x1 PUSH1 0x1 PUSH1 0xA0 SHL SUB DUP4 DUP2 AND PUSH1 0x1 PUSH1 0x1 PUSH1 0xA0 SHL SUB NOT DUP4 AND DUP2 OR DUP5 SSTORE PUSH1 0x40 MLOAD SWAP2 SWAP1 SWAP3 AND SWAP3 DUP4 SWAP2 PUSH32 0x8BE0079C531659141344CD1FD0A4F28419497F9722A3DAAFE3B4186F6B6457E0 SWAP2 SWAP1 LOG3 POP POP JUMP JUMPDEST PUSH1 0x0 PUSH1 0x20 DUP3 DUP5 SUB SLT ISZERO PUSH2 0xEF JUMPI PUSH1 0x0 DUP1 REVERT JUMPDEST DUP2 MLOAD PUSH1 0x1 PUSH1 0x1 PUSH1 0xA0 SHL SUB DUP2 AND DUP2 EQ PUSH2 0x106 JUMPI PUSH1 0x0 DUP1 REVERT JUMPDEST SWAP4 SWAP3 POP POP POP JUMP JUMPDEST PUSH2 0x1220 DUP1 PUSH2 0x11C PUSH1 0x0 CODECOPY PUSH1 0x0 RETURN INVALID PUSH1 0x80 PUSH1 0x40 MSTORE CALLVALUE DUP1 ISZERO PUSH2 0x10 JUMPI PUSH1 0x0 DUP1 REVERT JUMPDEST POP PUSH1 0x4 CALLDATASIZE LT PUSH2 0x137 JUMPI PUSH1 0x0 CALLDATALOAD PUSH1 0xE0 SHR DUP1 PUSH4 0x8DA5CB5B GT PUSH2 0xB8 JUMPI DUP1 PUSH4 0xAC4AFA38 GT PUSH2 0x7C JUMPI DUP1 PUSH4 0xAC4AFA38 EQ PUSH2 0x272 JUMPI DUP1 PUSH4 0xB684EDCF EQ PUSH2 0x2CE JUMPI DUP1 PUSH4 0xD13D8258 EQ PUSH2 0x2E1 JUMPI DUP1 PUSH4 0xF25F4B56 EQ PUSH2 0x2F4 JUMPI DUP1 PUSH4 0xF2FDE38B EQ PUSH2 0x307 JUMPI DUP1 PUSH4 0xF525CB68 EQ PUSH2 0x31A JUMPI PUSH1 0x0 DUP1 REVERT JUMPDEST DUP1 PUSH4 0x8DA5CB5B EQ PUSH2 0x220 JUMPI DUP1 PUSH4 0x8EEC5D70 EQ PUSH2 0x231 JUMPI DUP1 PUSH4 0x90D49B9D EQ PUSH2 0x239 JUMPI DUP1 PUSH4 0x9E2C8A5B EQ PUSH2 0x24C JUMPI DUP1 PUSH4 0xA18F07A0 EQ PUSH2 0x25F JUMPI PUSH1 0x0 DUP1 REVERT JUMPDEST DUP1 PUSH4 0x6BBF758D GT PUSH2 0xFF JUMPI DUP1 PUSH4 0x6BBF758D EQ PUSH2 0x1C9 JUMPI DUP1 PUSH4 0x6E99D52F EQ PUSH2 0x1D1 JUMPI DUP1 PUSH4 0x715018A6 EQ PUSH2 0x1DA JUMPI DUP1 PUSH4 0x72F702F3 EQ PUSH2 0x1E2 JUMPI DUP1 PUSH4 0x7B0472F0 EQ PUSH2 0x20D JUMPI PUSH1 0x0 DUP1 REVERT JUMPDEST DUP1 PUSH4 0x962EF79 EQ PUSH2 0x13C JUMPI DUP1 PUSH4 0x2F380B35 EQ PUSH2 0x151 JUMPI DUP1 PUSH4 0x33BA8882 EQ PUSH2 0x18C JUMPI DUP1 PUSH4 0x3A4AE669 EQ PUSH2 0x19F JUMPI DUP1 PUSH4 0x4D333A21 EQ PUSH2 0x1B6 JUMPI JUMPDEST PUSH1 0x0 DUP1 REVERT JUMPDEST PUSH2 0x14F PUSH2 0x14A CALLDATASIZE PUSH1 0x4 PUSH2 0x1068 JUMP JUMPDEST PUSH2 0x323 JUMP JUMPDEST STOP JUMPDEST PUSH2 0x164 PUSH2 0x15F CALLDATASIZE PUSH1 0x4 PUSH2 0x1068 JUMP JUMPDEST PUSH2 0x4D1 JUMP JUMPDEST PUSH1 0x40 DUP1 MLOAD SWAP4 DUP5 MSTORE PUSH1 0x1 PUSH1 0x1 PUSH1 0xA0 SHL SUB SWAP1 SWAP3 AND PUSH1 0x20 DUP5 ADD MSTORE SWAP1 DUP3 ADD MSTORE PUSH1 0x60 ADD JUMPDEST PUSH1 0x40 MLOAD DUP1 SWAP2 SUB SWAP1 RETURN JUMPDEST PUSH2 0x14F PUSH2 0x19A CALLDATASIZE PUSH1 0x4 PUSH2 0x109D JUMP JUMPDEST PUSH2 0x525 JUMP JUMPDEST PUSH2 0x1A8 PUSH2 0x1F4 DUP2 JUMP JUMPDEST PUSH1 0x40 MLOAD SWAP1 DUP2 MSTORE PUSH1 0x20 ADD PUSH2 0x183 JUMP JUMPDEST PUSH2 0x14F PUSH2 0x1C4 CALLDATASIZE PUSH1 0x4 PUSH2 0x1068 JUMP JUMPDEST PUSH2 0x60A JUMP JUMPDEST PUSH2 0x1A8 PUSH1 0xC8 DUP2 JUMP JUMPDEST PUSH2 0x1A8 PUSH2 0x3840 DUP2 JUMP JUMPDEST PUSH2 0x14F PUSH2 0x6BD JUMP JUMPDEST PUSH1 0x2 SLOAD PUSH2 0x1F5 SWAP1 PUSH1 0x1 PUSH1 0x1 PUSH1 0xA0 SHL SUB AND DUP2 JUMP JUMPDEST PUSH1 0x40 MLOAD PUSH1 0x1 PUSH1 0x1 PUSH1 0xA0 SHL SUB SWAP1 SWAP2 AND DUP2 MSTORE PUSH1 0x20 ADD PUSH2 0x183 JUMP JUMPDEST PUSH2 0x14F PUSH2 0x21B CALLDATASIZE PUSH1 0x4 PUSH2 0x10C9 JUMP JUMPDEST PUSH2 0x6D1 JUMP JUMPDEST PUSH1 0x0 SLOAD PUSH1 0x1 PUSH1 0x1 PUSH1 0xA0 SHL SUB AND PUSH2 0x1F5 JUMP JUMPDEST PUSH1 0x5 SLOAD PUSH2 0x1A8 JUMP JUMPDEST PUSH2 0x14F PUSH2 0x247 CALLDATASIZE PUSH1 0x4 PUSH2 0x10EB JUMP JUMPDEST PUSH2 0x9E6 JUMP JUMPDEST PUSH2 0x14F PUSH2 0x25A CALLDATASIZE PUSH1 0x4 PUSH2 0x10C9 JUMP JUMPDEST PUSH2 0xA5A JUMP JUMPDEST PUSH2 0x1A8 PUSH2 0x26D CALLDATASIZE PUSH1 0x4 PUSH2 0x109D JUMP JUMPDEST PUSH2 0xE22 JUMP JUMPDEST PUSH2 0x2AA PUSH2 0x280 CALLDATASIZE PUSH1 0x4 PUSH2 0x1068 JUMP JUMPDEST PUSH1 0x4 PUSH1 0x20 MSTORE PUSH1 0x0 SWAP1 DUP2 MSTORE PUSH1 0x40 SWAP1 KECCAK256 DUP1 SLOAD PUSH1 0x1 DUP3 ADD SLOAD PUSH1 0x2 SWAP1 SWAP3 ADD SLOAD SWAP1 SWAP2 SWAP1 PUSH1 0x1 PUSH1 0x1 PUSH1 0xA0 SHL SUB AND DUP4 JUMP JUMPDEST PUSH1 0x40 DUP1 MLOAD SWAP4 DUP5 MSTORE PUSH1 0x20 DUP5 ADD SWAP3 SWAP1 SWAP3 MSTORE PUSH1 0x1 PUSH1 0x1 PUSH1 0xA0 SHL SUB AND SWAP1 DUP3 ADD MSTORE PUSH1 0x60 ADD PUSH2 0x183 JUMP JUMPDEST PUSH2 0x1A8 PUSH2 0x2DC CALLDATASIZE PUSH1 0x4 PUSH2 0x109D JUMP JUMPDEST PUSH2 0xEB8 JUMP JUMPDEST PUSH2 0x1A8 PUSH2 0x2EF CALLDATASIZE PUSH1 0x4 PUSH2 0x109D JUMP JUMPDEST PUSH2 0xF07 JUMP JUMPDEST PUSH1 0x3 SLOAD PUSH2 0x1F5 SWAP1 PUSH1 0x1 PUSH1 0x1 PUSH1 0xA0 SHL SUB AND DUP2 JUMP JUMPDEST PUSH2 0x14F PUSH2 0x315 CALLDATASIZE PUSH1 0x4 PUSH2 0x10EB JUMP JUMPDEST PUSH2 0xF57 JUMP JUMPDEST PUSH2 0x1A8 PUSH1 0x5 SLOAD DUP2 JUMP JUMPDEST PUSH2 0x32B PUSH2 0xF92 JUMP JUMPDEST PUSH1 0x5 SLOAD DUP2 LT PUSH2 0x355 JUMPI PUSH1 0x40 MLOAD PUSH3 0x461BCD PUSH1 0xE5 SHL DUP2 MSTORE PUSH1 0x4 ADD PUSH2 0x34C SWAP1 PUSH2 0x110D JUMP JUMPDEST PUSH1 0x40 MLOAD DUP1 SWAP2 SUB SWAP1 REVERT JUMPDEST PUSH1 0x0 DUP2 DUP2 MSTORE PUSH1 0x4 PUSH1 0x20 MSTORE PUSH1 0x40 DUP2 KECCAK256 SWAP1 PUSH2 0x36E DUP4 CALLER PUSH2 0xE22 JUMP JUMPDEST SWAP1 POP PUSH1 0x0 DUP2 GT PUSH2 0x3B7 JUMPI PUSH1 0x40 MLOAD PUSH3 0x461BCD PUSH1 0xE5 SHL DUP2 MSTORE PUSH1 0x20 PUSH1 0x4 DUP3 ADD MSTORE PUSH1 0x14 PUSH1 0x24 DUP3 ADD MSTORE PUSH20 0x4E6F207265776172647320617661696C61626C65 PUSH1 0x60 SHL PUSH1 0x44 DUP3 ADD MSTORE PUSH1 0x64 ADD PUSH2 0x34C JUMP JUMPDEST CALLER PUSH1 0x0 DUP2 DUP2 MSTORE PUSH1 0x4 DUP5 DUP2 ADD PUSH1 0x20 MSTORE PUSH1 0x40 SWAP2 DUP3 SWAP1 KECCAK256 TIMESTAMP SWAP1 SSTORE PUSH1 0x2 DUP6 ADD SLOAD SWAP2 MLOAD PUSH4 0xA9059CBB PUSH1 0xE0 SHL DUP2 MSTORE SWAP1 DUP2 ADD SWAP3 SWAP1 SWAP3 MSTORE PUSH1 0x24 DUP3 ADD DUP4 SWAP1 MSTORE PUSH1 0x1 PUSH1 0x1 PUSH1 0xA0 SHL SUB AND SWAP1 PUSH4 0xA9059CBB SWAP1 PUSH1 0x44 ADD PUSH1 0x20 PUSH1 0x40 MLOAD DUP1 DUP4 SUB DUP2 PUSH1 0x0 DUP8 GAS CALL ISZERO DUP1 ISZERO PUSH2 0x41F JUMPI RETURNDATASIZE PUSH1 0x0 DUP1 RETURNDATACOPY RETURNDATASIZE PUSH1 0x0 REVERT JUMPDEST POP POP POP POP PUSH1 0x40 MLOAD RETURNDATASIZE PUSH1 0x1F NOT PUSH1 0x1F DUP3 ADD AND DUP3 ADD DUP1 PUSH1 0x40 MSTORE POP DUP2 ADD SWAP1 PUSH2 0x443 SWAP2 SWAP1 PUSH2 0x113A JUMP JUMPDEST PUSH2 0x488 JUMPI PUSH1 0x40 MLOAD PUSH3 0x461BCD PUSH1 0xE5 SHL DUP2 MSTORE PUSH1 0x20 PUSH1 0x4 DUP3 ADD MSTORE PUSH1 0x16 PUSH1 0x24 DUP3 ADD MSTORE PUSH22 0x14995DD85C99081D1C985B9CD9995C8819985A5B1959 PUSH1 0x52 SHL PUSH1 0x44 DUP3 ADD MSTORE PUSH1 0x64 ADD PUSH2 0x34C JUMP JUMPDEST PUSH1 0x40 DUP1 MLOAD DUP5 DUP2 MSTORE PUSH1 0x20 DUP2 ADD DUP4 SWAP1 MSTORE CALLER SWAP2 PUSH32 0xF01DA32686223933D8A18A391060918C7F11A3648639EDD87AE013E2E2731743 SWAP2 ADD PUSH1 0x40 MLOAD DUP1 SWAP2 SUB SWAP1 LOG2 POP POP PUSH2 0x4CE PUSH1 0x1 DUP1 SSTORE JUMP JUMPDEST POP JUMP JUMPDEST PUSH1 0x0 DUP1 PUSH1 0x0 PUSH1 0x5 SLOAD DUP5 LT PUSH2 0x4F7 JUMPI PUSH1 0x40 MLOAD PUSH3 0x461BCD PUSH1 0xE5 SHL DUP2 MSTORE PUSH1 0x4 ADD PUSH2 0x34C SWAP1 PUSH2 0x110D JUMP JUMPDEST POP POP POP PUSH1 0x0 SWAP1 DUP2 MSTORE PUSH1 0x4 PUSH1 0x20 MSTORE PUSH1 0x40 SWAP1 KECCAK256 DUP1 SLOAD PUSH1 0x2 DUP3 ADD SLOAD PUSH1 0x1 SWAP1 SWAP3 ADD SLOAD SWAP1 SWAP3 PUSH1 0x1 PUSH1 0x1 PUSH1 0xA0 SHL SUB SWAP1 SWAP3 AND SWAP2 JUMP JUMPDEST PUSH2 0x52D PUSH2 0xFEB JUMP JUMPDEST DUP1 PUSH1 0x1 PUSH1 0x1 PUSH1 0xA0 SHL SUB DUP2 AND PUSH2 0x576 JUMPI PUSH1 0x40 MLOAD PUSH3 0x461BCD PUSH1 0xE5 SHL DUP2 MSTORE PUSH1 0x20 PUSH1 0x4 DUP3 ADD MSTORE PUSH1 0xF PUSH1 0x24 DUP3 ADD MSTORE PUSH15 0x496E76616C69642061646472657373 PUSH1 0x88 SHL PUSH1 0x44 DUP3 ADD MSTORE PUSH1 0x64 ADD PUSH2 0x34C JUMP JUMPDEST PUSH1 0x5 DUP1 SLOAD PUSH1 0x0 SWAP1 DUP2 MSTORE PUSH1 0x4 PUSH1 0x20 SWAP1 DUP2 MSTORE PUSH1 0x40 DUP1 DUP4 KECCAK256 DUP8 DUP2 SSTORE PUSH1 0x2 DUP2 ADD DUP1 SLOAD PUSH1 0x1 PUSH1 0x1 PUSH1 0xA0 SHL SUB NOT AND PUSH1 0x1 PUSH1 0x1 PUSH1 0xA0 SHL SUB DUP10 AND SWAP1 DUP2 OR SWAP1 SWAP2 SSTORE PUSH1 0x1 DUP3 ADD SWAP5 SWAP1 SWAP5 SSTORE SWAP4 SLOAD DUP2 MLOAD DUP9 DUP2 MSTORE SWAP3 DUP4 ADD SWAP4 SWAP1 SWAP4 MSTORE PUSH32 0xAE9596825F83AA972E67ED4A3AC74D2EB98B77EE23453868DB5DC3B08A0316CA SWAP2 ADD PUSH1 0x40 MLOAD DUP1 SWAP2 SUB SWAP1 LOG2 PUSH1 0x5 DUP1 SLOAD SWAP1 PUSH1 0x0 PUSH2 0x5FF DUP4 PUSH2 0x1172 JUMP JUMPDEST SWAP2 SWAP1 POP SSTORE POP POP POP POP POP JUMP JUMPDEST PUSH2 0x612 PUSH2 0xFEB JUMP JUMPDEST PUSH1 0x5 SLOAD DUP2 LT PUSH2 0x633 JUMPI PUSH1 0x40 MLOAD PUSH3 0x461BCD PUSH1 0xE5 SHL DUP2 MSTORE PUSH1 0x4 ADD PUSH2 0x34C SWAP1 PUSH2 0x110D JUMP JUMPDEST PUSH1 0x0 DUP2 DUP2 MSTORE PUSH1 0x4 PUSH1 0x20 MSTORE PUSH1 0x40 SWAP1 KECCAK256 PUSH1 0x1 DUP2 ADD SLOAD PUSH10 0x152D02C7E14AF6800000 GT PUSH2 0x65F JUMPI PUSH1 0x1E DUP2 SSTORE PUSH2 0x682 JUMP JUMPDEST PUSH10 0xA968163F0A57B400000 DUP2 PUSH1 0x1 ADD SLOAD LT PUSH2 0x67D JUMPI PUSH1 0x64 DUP2 SSTORE PUSH2 0x682 JUMP JUMPDEST PUSH1 0xC8 DUP2 SSTORE JUMPDEST DUP1 SLOAD PUSH1 0x40 MLOAD SWAP1 DUP2 MSTORE DUP3 SWAP1 PUSH32 0x9C4893E20D6432767854BFAA7EAD2C90AD7644E9440C6861A383F63E4FB2803E SWAP1 PUSH1 0x20 ADD PUSH1 0x40 MLOAD DUP1 SWAP2 SUB SWAP1 LOG2 POP POP JUMP JUMPDEST PUSH2 0x6C5 PUSH2 0xFEB JUMP JUMPDEST PUSH2 0x6CF PUSH1 0x0 PUSH2 0x1018 JUMP JUMPDEST JUMP JUMPDEST PUSH2 0x6D9 PUSH2 0xF92 JUMP JUMPDEST PUSH1 0x3 SLOAD PUSH1 0x1 PUSH1 0x1 PUSH1 0xA0 SHL SUB AND PUSH2 0x726 JUMPI PUSH1 0x40 MLOAD PUSH3 0x461BCD PUSH1 0xE5 SHL DUP2 MSTORE PUSH1 0x20 PUSH1 0x4 DUP3 ADD MSTORE PUSH1 0x12 PUSH1 0x24 DUP3 ADD MSTORE PUSH18 0x119959481DD85B1B195D081B9BDD081CD95D PUSH1 0x72 SHL PUSH1 0x44 DUP3 ADD MSTORE PUSH1 0x64 ADD PUSH2 0x34C JUMP JUMPDEST PUSH1 0x5 SLOAD DUP3 LT PUSH2 0x747 JUMPI PUSH1 0x40 MLOAD PUSH3 0x461BCD PUSH1 0xE5 SHL DUP2 MSTORE PUSH1 0x4 ADD PUSH2 0x34C SWAP1 PUSH2 0x110D JUMP JUMPDEST PUSH1 0x0 DUP2 GT PUSH2 0x797 JUMPI PUSH1 0x40 MLOAD PUSH3 0x461BCD PUSH1 0xE5 SHL DUP2 MSTORE PUSH1 0x20 PUSH1 0x4 DUP3 ADD DUP2 SWAP1 MSTORE PUSH1 0x24 DUP3 ADD MSTORE PUSH32 0x416D6F756E74206D7573742062652067726561746572207468616E207A65726F PUSH1 0x44 DUP3 ADD MSTORE PUSH1 0x64 ADD PUSH2 0x34C JUMP JUMPDEST PUSH1 0x0 DUP3 DUP2 MSTORE PUSH1 0x4 PUSH1 0x20 MSTORE PUSH1 0x40 DUP2 KECCAK256 SWAP1 PUSH2 0x2710 PUSH2 0x7B4 PUSH1 0xC8 DUP6 PUSH2 0x118B JUMP JUMPDEST PUSH2 0x7BE SWAP2 SWAP1 PUSH2 0x11A2 JUMP JUMPDEST SWAP1 POP PUSH1 0x0 PUSH2 0x7CC DUP3 DUP6 PUSH2 0x11C4 JUMP JUMPDEST PUSH1 0x2 SLOAD PUSH1 0x40 MLOAD PUSH4 0x23B872DD PUSH1 0xE0 SHL DUP2 MSTORE CALLER PUSH1 0x4 DUP3 ADD MSTORE ADDRESS PUSH1 0x24 DUP3 ADD MSTORE PUSH1 0x44 DUP2 ADD DUP4 SWAP1 MSTORE SWAP2 SWAP3 POP PUSH1 0x1 PUSH1 0x1 PUSH1 0xA0 SHL SUB AND SWAP1 PUSH4 0x23B872DD SWAP1 PUSH1 0x64 ADD PUSH1 0x20 PUSH1 0x40 MLOAD DUP1 DUP4 SUB DUP2 PUSH1 0x0 DUP8 GAS CALL ISZERO DUP1 ISZERO PUSH2 0x824 JUMPI RETURNDATASIZE PUSH1 0x0 DUP1 RETURNDATACOPY RETURNDATASIZE PUSH1 0x0 REVERT JUMPDEST POP POP POP POP PUSH1 0x40 MLOAD RETURNDATASIZE PUSH1 0x1F NOT PUSH1 0x1F DUP3 ADD AND DUP3 ADD DUP1 PUSH1 0x40 MSTORE POP DUP2 ADD SWAP1 PUSH2 0x848 SWAP2 SWAP1 PUSH2 0x113A JUMP JUMPDEST PUSH2 0x886 JUMPI PUSH1 0x40 MLOAD PUSH3 0x461BCD PUSH1 0xE5 SHL DUP2 MSTORE PUSH1 0x20 PUSH1 0x4 DUP3 ADD MSTORE PUSH1 0xF PUSH1 0x24 DUP3 ADD MSTORE PUSH15 0x151C985B9CD9995C8819985A5B1959 PUSH1 0x8A SHL PUSH1 0x44 DUP3 ADD MSTORE PUSH1 0x64 ADD PUSH2 0x34C JUMP JUMPDEST PUSH1 0x2 SLOAD PUSH1 0x3 SLOAD PUSH1 0x40 MLOAD PUSH4 0x23B872DD PUSH1 0xE0 SHL DUP2 MSTORE CALLER PUSH1 0x4 DUP3 ADD MSTORE PUSH1 0x1 PUSH1 0x1 PUSH1 0xA0 SHL SUB SWAP2 DUP3 AND PUSH1 0x24 DUP3 ADD MSTORE PUSH1 0x44 DUP2 ADD DUP6 SWAP1 MSTORE SWAP2 AND SWAP1 PUSH4 0x23B872DD SWAP1 PUSH1 0x64 ADD PUSH1 0x20 PUSH1 0x40 MLOAD DUP1 DUP4 SUB DUP2 PUSH1 0x0 DUP8 GAS CALL ISZERO DUP1 ISZERO PUSH2 0x8E1 JUMPI RETURNDATASIZE PUSH1 0x0 DUP1 RETURNDATACOPY RETURNDATASIZE PUSH1 0x0 REVERT JUMPDEST POP POP POP POP PUSH1 0x40 MLOAD RETURNDATASIZE PUSH1 0x1F NOT PUSH1 0x1F DUP3 ADD AND DUP3 ADD DUP1 PUSH1 0x40 MSTORE POP DUP2 ADD SWAP1 PUSH2 0x905 SWAP2 SWAP1 PUSH2 0x113A JUMP JUMPDEST PUSH2 0x947 JUMPI PUSH1 0x40 MLOAD PUSH3 0x461BCD PUSH1 0xE5 SHL DUP2 MSTORE PUSH1 0x20 PUSH1 0x4 DUP3 ADD MSTORE PUSH1 0x13 PUSH1 0x24 DUP3 ADD MSTORE PUSH19 0x119959481D1C985B9CD9995C8819985A5B1959 PUSH1 0x6A SHL PUSH1 0x44 DUP3 ADD MSTORE PUSH1 0x64 ADD PUSH2 0x34C JUMP JUMPDEST CALLER PUSH1 0x0 SWAP1 DUP2 MSTORE PUSH1 0x3 DUP5 ADD PUSH1 0x20 MSTORE PUSH1 0x40 DUP2 KECCAK256 DUP1 SLOAD DUP4 SWAP3 SWAP1 PUSH2 0x968 SWAP1 DUP5 SWAP1 PUSH2 0x11D7 JUMP JUMPDEST SWAP3 POP POP DUP2 SWAP1 SSTORE POP DUP1 DUP4 PUSH1 0x1 ADD PUSH1 0x0 DUP3 DUP3 SLOAD PUSH2 0x983 SWAP2 SWAP1 PUSH2 0x11D7 JUMP JUMPDEST SWAP1 SWAP2 SSTORE POP POP CALLER PUSH1 0x0 DUP2 DUP2 MSTORE PUSH1 0x4 DUP6 ADD PUSH1 0x20 SWAP1 DUP2 MSTORE PUSH1 0x40 SWAP2 DUP3 SWAP1 KECCAK256 TIMESTAMP SWAP1 SSTORE DUP2 MLOAD DUP9 DUP2 MSTORE SWAP1 DUP2 ADD DUP5 SWAP1 MSTORE PUSH32 0x1449C6DD7851ABC30ABF37F57715F492010519147CC2652FBC38202C18A6EE90 SWAP2 ADD PUSH1 0x40 MLOAD DUP1 SWAP2 SUB SWAP1 LOG2 POP POP POP PUSH2 0x9E2 PUSH1 0x1 DUP1 SSTORE JUMP JUMPDEST POP POP JUMP JUMPDEST PUSH2 0x9EE PUSH2 0xFEB JUMP JUMPDEST DUP1 PUSH1 0x1 PUSH1 0x1 PUSH1 0xA0 SHL SUB DUP2 AND PUSH2 0xA37 JUMPI PUSH1 0x40 MLOAD PUSH3 0x461BCD PUSH1 0xE5 SHL DUP2 MSTORE PUSH1 0x20 PUSH1 0x4 DUP3 ADD MSTORE PUSH1 0xF PUSH1 0x24 DUP3 ADD MSTORE PUSH15 0x496E76616C69642061646472657373 PUSH1 0x88 SHL PUSH1 0x44 DUP3 ADD MSTORE PUSH1 0x64 ADD PUSH2 0x34C JUMP JUMPDEST POP PUSH1 0x3 DUP1 SLOAD PUSH1 0x1 PUSH1 0x1 PUSH1 0xA0 SHL SUB NOT AND PUSH1 0x1 PUSH1 0x1 PUSH1 0xA0 SHL SUB SWAP3 SWAP1 SWAP3 AND SWAP2 SWAP1 SWAP2 OR SWAP1 SSTORE JUMP JUMPDEST PUSH2 0xA62 PUSH2 0xF92 JUMP JUMPDEST PUSH1 0x3 SLOAD PUSH1 0x1 PUSH1 0x1 PUSH1 0xA0 SHL SUB AND PUSH2 0xAAF JUMPI PUSH1 0x40 MLOAD PUSH3 0x461BCD PUSH1 0xE5 SHL DUP2 MSTORE PUSH1 0x20 PUSH1 0x4 DUP3 ADD MSTORE PUSH1 0x12 PUSH1 0x24 DUP3 ADD MSTORE PUSH18 0x119959481DD85B1B195D081B9BDD081CD95D PUSH1 0x72 SHL PUSH1 0x44 DUP3 ADD MSTORE PUSH1 0x64 ADD PUSH2 0x34C JUMP JUMPDEST PUSH1 0x5 SLOAD DUP3 LT PUSH2 0xAD0 JUMPI PUSH1 0x40 MLOAD PUSH3 0x461BCD PUSH1 0xE5 SHL DUP2 MSTORE PUSH1 0x4 ADD PUSH2 0x34C SWAP1 PUSH2 0x110D JUMP JUMPDEST PUSH1 0x0 DUP2 GT PUSH2 0xB20 JUMPI PUSH1 0x40 MLOAD PUSH3 0x461BCD PUSH1 0xE5 SHL DUP2 MSTORE PUSH1 0x20 PUSH1 0x4 DUP3 ADD DUP2 SWAP1 MSTORE PUSH1 0x24 DUP3 ADD MSTORE PUSH32 0x416D6F756E74206D7573742062652067726561746572207468616E207A65726F PUSH1 0x44 DUP3 ADD MSTORE PUSH1 0x64 ADD PUSH2 0x34C JUMP JUMPDEST PUSH1 0x0 DUP3 DUP2 MSTORE PUSH1 0x4 PUSH1 0x20 SWAP1 DUP2 MSTORE PUSH1 0x40 DUP1 DUP4 KECCAK256 CALLER DUP5 MSTORE PUSH1 0x3 DUP2 ADD SWAP1 SWAP3 MSTORE SWAP1 SWAP2 KECCAK256 SLOAD DUP3 DUP2 LT ISZERO PUSH2 0xB8F JUMPI PUSH1 0x40 MLOAD PUSH3 0x461BCD PUSH1 0xE5 SHL DUP2 MSTORE PUSH1 0x20 PUSH1 0x4 DUP3 ADD MSTORE PUSH1 0x1B PUSH1 0x24 DUP3 ADD MSTORE PUSH32 0x496E73756666696369656E74207374616B65642062616C616E63650000000000 PUSH1 0x44 DUP3 ADD MSTORE PUSH1 0x64 ADD PUSH2 0x34C JUMP JUMPDEST CALLER PUSH1 0x0 SWAP1 DUP2 MSTORE PUSH1 0x4 DUP4 ADD PUSH1 0x20 MSTORE PUSH1 0x40 SWAP1 KECCAK256 SLOAD PUSH2 0xBAE SWAP1 PUSH2 0x3840 SWAP1 PUSH2 0x11D7 JUMP JUMPDEST TIMESTAMP LT ISZERO PUSH2 0xBFD JUMPI PUSH1 0x40 MLOAD PUSH3 0x461BCD PUSH1 0xE5 SHL DUP2 MSTORE PUSH1 0x20 PUSH1 0x4 DUP3 ADD MSTORE PUSH1 0x18 PUSH1 0x24 DUP3 ADD MSTORE PUSH32 0x436F6F6C646F776E20706572696F64206E6F74206F7665720000000000000000 PUSH1 0x44 DUP3 ADD MSTORE PUSH1 0x64 ADD PUSH2 0x34C JUMP JUMPDEST PUSH1 0x0 PUSH2 0x2710 PUSH2 0xC0E PUSH2 0x1F4 DUP7 PUSH2 0x118B JUMP JUMPDEST PUSH2 0xC18 SWAP2 SWAP1 PUSH2 0x11A2 JUMP JUMPDEST SWAP1 POP PUSH1 0x0 PUSH2 0xC26 DUP3 DUP7 PUSH2 0x11C4 JUMP JUMPDEST CALLER PUSH1 0x0 SWAP1 DUP2 MSTORE PUSH1 0x3 DUP7 ADD PUSH1 0x20 MSTORE PUSH1 0x40 DUP2 KECCAK256 DUP1 SLOAD SWAP3 SWAP4 POP DUP8 SWAP3 SWAP1 SWAP2 SWAP1 PUSH2 0xC4C SWAP1 DUP5 SWAP1 PUSH2 0x11C4 JUMP JUMPDEST SWAP3 POP POP DUP2 SWAP1 SSTORE POP DUP5 DUP5 PUSH1 0x1 ADD PUSH1 0x0 DUP3 DUP3 SLOAD PUSH2 0xC67 SWAP2 SWAP1 PUSH2 0x11C4 JUMP JUMPDEST SWAP1 SWAP2 SSTORE POP POP PUSH1 0x2 SLOAD PUSH1 0x40 MLOAD PUSH4 0xA9059CBB PUSH1 0xE0 SHL DUP2 MSTORE CALLER PUSH1 0x4 DUP3 ADD MSTORE PUSH1 0x24 DUP2 ADD DUP4 SWAP1 MSTORE PUSH1 0x1 PUSH1 0x1 PUSH1 0xA0 SHL SUB SWAP1 SWAP2 AND SWAP1 PUSH4 0xA9059CBB SWAP1 PUSH1 0x44 ADD PUSH1 0x20 PUSH1 0x40 MLOAD DUP1 DUP4 SUB DUP2 PUSH1 0x0 DUP8 GAS CALL ISZERO DUP1 ISZERO PUSH2 0xCBD JUMPI RETURNDATASIZE PUSH1 0x0 DUP1 RETURNDATACOPY RETURNDATASIZE PUSH1 0x0 REVERT JUMPDEST POP POP POP POP PUSH1 0x40 MLOAD RETURNDATASIZE PUSH1 0x1F NOT PUSH1 0x1F DUP3 ADD AND DUP3 ADD DUP1 PUSH1 0x40 MSTORE POP DUP2 ADD SWAP1 PUSH2 0xCE1 SWAP2 SWAP1 PUSH2 0x113A JUMP JUMPDEST PUSH2 0xD1F JUMPI PUSH1 0x40 MLOAD PUSH3 0x461BCD PUSH1 0xE5 SHL DUP2 MSTORE PUSH1 0x20 PUSH1 0x4 DUP3 ADD MSTORE PUSH1 0xF PUSH1 0x24 DUP3 ADD MSTORE PUSH15 0x151C985B9CD9995C8819985A5B1959 PUSH1 0x8A SHL PUSH1 0x44 DUP3 ADD MSTORE PUSH1 0x64 ADD PUSH2 0x34C JUMP JUMPDEST PUSH1 0x2 SLOAD PUSH1 0x3 SLOAD PUSH1 0x40 MLOAD PUSH4 0xA9059CBB PUSH1 0xE0 SHL DUP2 MSTORE PUSH1 0x1 PUSH1 0x1 PUSH1 0xA0 SHL SUB SWAP2 DUP3 AND PUSH1 0x4 DUP3 ADD MSTORE PUSH1 0x24 DUP2 ADD DUP6 SWAP1 MSTORE SWAP2 AND SWAP1 PUSH4 0xA9059CBB SWAP1 PUSH1 0x44 ADD PUSH1 0x20 PUSH1 0x40 MLOAD DUP1 DUP4 SUB DUP2 PUSH1 0x0 DUP8 GAS CALL ISZERO DUP1 ISZERO PUSH2 0xD74 JUMPI RETURNDATASIZE PUSH1 0x0 DUP1 RETURNDATACOPY RETURNDATASIZE PUSH1 0x0 REVERT JUMPDEST POP POP POP POP PUSH1 0x40 MLOAD RETURNDATASIZE PUSH1 0x1F NOT PUSH1 0x1F DUP3 ADD AND DUP3 ADD DUP1 PUSH1 0x40 MSTORE POP DUP2 ADD SWAP1 PUSH2 0xD98 SWAP2 SWAP1 PUSH2 0x113A JUMP JUMPDEST PUSH2 0xDDA JUMPI PUSH1 0x40 MLOAD PUSH3 0x461BCD PUSH1 0xE5 SHL DUP2 MSTORE PUSH1 0x20 PUSH1 0x4 DUP3 ADD MSTORE PUSH1 0x13 PUSH1 0x24 DUP3 ADD MSTORE PUSH19 0x119959481D1C985B9CD9995C8819985A5B1959 PUSH1 0x6A SHL PUSH1 0x44 DUP3 ADD MSTORE PUSH1 0x64 ADD PUSH2 0x34C JUMP JUMPDEST PUSH1 0x40 DUP1 MLOAD DUP8 DUP2 MSTORE PUSH1 0x20 DUP2 ADD DUP4 SWAP1 MSTORE CALLER SWAP2 PUSH32 0x7FC4727E062E336010F2C282598EF5F14FACB3DE68CF8195C2F23E1454B2B74E SWAP2 ADD PUSH1 0x40 MLOAD DUP1 SWAP2 SUB SWAP1 LOG2 POP POP POP POP PUSH2 0x9E2 PUSH1 0x1 DUP1 SSTORE JUMP JUMPDEST PUSH1 0x0 DUP3 DUP2 MSTORE PUSH1 0x4 PUSH1 0x20 SWAP1 DUP2 MSTORE PUSH1 0x40 DUP1 DUP4 KECCAK256 PUSH1 0x1 PUSH1 0x1 PUSH1 0xA0 SHL SUB DUP6 AND DUP5 MSTORE PUSH1 0x3 DUP2 ADD SWAP1 SWAP3 MSTORE DUP3 KECCAK256 SLOAD DUP1 DUP4 SUB PUSH2 0xE5B JUMPI PUSH1 0x0 SWAP3 POP POP POP PUSH2 0xEB2 JUMP JUMPDEST PUSH1 0x1 PUSH1 0x1 PUSH1 0xA0 SHL SUB DUP5 AND PUSH1 0x0 SWAP1 DUP2 MSTORE PUSH1 0x4 DUP4 ADD PUSH1 0x20 MSTORE PUSH1 0x40 DUP2 KECCAK256 SLOAD PUSH2 0xE80 SWAP1 TIMESTAMP PUSH2 0x11C4 JUMP JUMPDEST SWAP1 POP PUSH4 0xBBF81E00 DUP2 DUP5 PUSH1 0x0 ADD SLOAD DUP5 PUSH2 0xE98 SWAP2 SWAP1 PUSH2 0x118B JUMP JUMPDEST PUSH2 0xEA2 SWAP2 SWAP1 PUSH2 0x118B JUMP JUMPDEST PUSH2 0xEAC SWAP2 SWAP1 PUSH2 0x11A2 JUMP JUMPDEST SWAP4 POP POP POP POP JUMPDEST SWAP3 SWAP2 POP POP JUMP JUMPDEST PUSH1 0x0 PUSH1 0x5 SLOAD DUP4 LT PUSH2 0xEDB JUMPI PUSH1 0x40 MLOAD PUSH3 0x461BCD PUSH1 0xE5 SHL DUP2 MSTORE PUSH1 0x4 ADD PUSH2 0x34C SWAP1 PUSH2 0x110D JUMP JUMPDEST POP PUSH1 0x0 DUP3 DUP2 MSTORE PUSH1 0x4 PUSH1 0x20 DUP2 DUP2 MSTORE PUSH1 0x40 DUP1 DUP5 KECCAK256 PUSH1 0x1 PUSH1 0x1 PUSH1 0xA0 SHL SUB DUP7 AND DUP6 MSTORE SWAP1 SWAP3 ADD SWAP1 MSTORE SWAP1 KECCAK256 SLOAD SWAP3 SWAP2 POP POP JUMP JUMPDEST PUSH1 0x0 PUSH1 0x5 SLOAD DUP4 LT PUSH2 0xF2A JUMPI PUSH1 0x40 MLOAD PUSH3 0x461BCD PUSH1 0xE5 SHL DUP2 MSTORE PUSH1 0x4 ADD PUSH2 0x34C SWAP1 PUSH2 0x110D JUMP JUMPDEST POP PUSH1 0x0 DUP3 DUP2 MSTORE PUSH1 0x4 PUSH1 0x20 SWAP1 DUP2 MSTORE PUSH1 0x40 DUP1 DUP4 KECCAK256 PUSH1 0x1 PUSH1 0x1 PUSH1 0xA0 SHL SUB DUP6 AND DUP5 MSTORE PUSH1 0x3 ADD SWAP1 SWAP2 MSTORE SWAP1 KECCAK256 SLOAD SWAP3 SWAP2 POP POP JUMP JUMPDEST PUSH2 0xF5F PUSH2 0xFEB JUMP JUMPDEST PUSH1 0x1 PUSH1 0x1 PUSH1 0xA0 SHL SUB DUP2 AND PUSH2 0xF89 JUMPI PUSH1 0x40 MLOAD PUSH4 0x1E4FBDF7 PUSH1 0xE0 SHL DUP2 MSTORE PUSH1 0x0 PUSH1 0x4 DUP3 ADD MSTORE PUSH1 0x24 ADD PUSH2 0x34C JUMP JUMPDEST PUSH2 0x4CE DUP2 PUSH2 0x1018 JUMP JUMPDEST PUSH1 0x2 PUSH1 0x1 SLOAD SUB PUSH2 0xFE4 JUMPI PUSH1 0x40 MLOAD PUSH3 0x461BCD PUSH1 0xE5 SHL DUP2 MSTORE PUSH1 0x20 PUSH1 0x4 DUP3 ADD MSTORE PUSH1 0x1F PUSH1 0x24 DUP3 ADD MSTORE PUSH32 0x5265656E7472616E637947756172643A207265656E7472616E742063616C6C00 PUSH1 0x44 DUP3 ADD MSTORE PUSH1 0x64 ADD PUSH2 0x34C JUMP JUMPDEST PUSH1 0x2 PUSH1 0x1 SSTORE JUMP JUMPDEST PUSH1 0x0 SLOAD PUSH1 0x1 PUSH1 0x1 PUSH1 0xA0 SHL SUB AND CALLER EQ PUSH2 0x6CF JUMPI PUSH1 0x40 MLOAD PUSH4 0x118CDAA7 PUSH1 0xE0 SHL DUP2 MSTORE CALLER PUSH1 0x4 DUP3 ADD MSTORE PUSH1 0x24 ADD PUSH2 0x34C JUMP JUMPDEST PUSH1 0x0 DUP1 SLOAD PUSH1 0x1 PUSH1 0x1 PUSH1 0xA0 SHL SUB DUP4 DUP2 AND PUSH1 0x1 PUSH1 0x1 PUSH1 0xA0 SHL SUB NOT DUP4 AND DUP2 OR DUP5 SSTORE PUSH1 0x40 MLOAD SWAP2 SWAP1 SWAP3 AND SWAP3 DUP4 SWAP2 PUSH32 0x8BE0079C531659141344CD1FD0A4F28419497F9722A3DAAFE3B4186F6B6457E0 SWAP2 SWAP1 LOG3 POP POP JUMP JUMPDEST PUSH1 0x0 PUSH1 0x20 DUP3 DUP5 SUB SLT ISZERO PUSH2 0x107A JUMPI PUSH1 0x0 DUP1 REVERT JUMPDEST POP CALLDATALOAD SWAP2 SWAP1 POP JUMP JUMPDEST DUP1 CALLDATALOAD PUSH1 0x1 PUSH1 0x1 PUSH1 0xA0 SHL SUB DUP2 AND DUP2 EQ PUSH2 0x1098 JUMPI PUSH1 0x0 DUP1 REVERT JUMPDEST SWAP2 SWAP1 POP JUMP JUMPDEST PUSH1 0x0 DUP1 PUSH1 0x40 DUP4 DUP6 SUB SLT ISZERO PUSH2 0x10B0 JUMPI PUSH1 0x0 DUP1 REVERT JUMPDEST DUP3 CALLDATALOAD SWAP2 POP PUSH2 0x10C0 PUSH1 0x20 DUP5 ADD PUSH2 0x1081 JUMP JUMPDEST SWAP1 POP SWAP3 POP SWAP3 SWAP1 POP JUMP JUMPDEST PUSH1 0x0 DUP1 PUSH1 0x40 DUP4 DUP6 SUB SLT ISZERO PUSH2 0x10DC JUMPI PUSH1 0x0 DUP1 REVERT JUMPDEST POP POP DUP1 CALLDATALOAD SWAP3 PUSH1 0x20 SWAP1 SWAP2 ADD CALLDATALOAD SWAP2 POP JUMP JUMPDEST PUSH1 0x0 PUSH1 0x20 DUP3 DUP5 SUB SLT ISZERO PUSH2 0x10FD JUMPI PUSH1 0x0 DUP1 REVERT JUMPDEST PUSH2 0x1106 DUP3 PUSH2 0x1081 JUMP JUMPDEST SWAP4 SWAP3 POP POP POP JUMP JUMPDEST PUSH1 0x20 DUP1 DUP3 MSTORE PUSH1 0x13 SWAP1 DUP3 ADD MSTORE PUSH19 0x141BDBDB08191BD95CC81B9BDD08195E1A5CDD PUSH1 0x6A SHL PUSH1 0x40 DUP3 ADD MSTORE PUSH1 0x60 ADD SWAP1 JUMP JUMPDEST PUSH1 0x0 PUSH1 0x20 DUP3 DUP5 SUB SLT ISZERO PUSH2 0x114C JUMPI PUSH1 0x0 DUP1 REVERT JUMPDEST DUP2 MLOAD DUP1 ISZERO ISZERO DUP2 EQ PUSH2 0x1106 JUMPI PUSH1 0x0 DUP1 REVERT JUMPDEST PUSH4 0x4E487B71 PUSH1 0xE0 SHL PUSH1 0x0 MSTORE PUSH1 0x11 PUSH1 0x4 MSTORE PUSH1 0x24 PUSH1 0x0 REVERT JUMPDEST PUSH1 0x0 PUSH1 0x1 DUP3 ADD PUSH2 0x1184 JUMPI PUSH2 0x1184 PUSH2 0x115C JUMP JUMPDEST POP PUSH1 0x1 ADD SWAP1 JUMP JUMPDEST DUP1 DUP3 MUL DUP2 ISZERO DUP3 DUP3 DIV DUP5 EQ OR PUSH2 0xEB2 JUMPI PUSH2 0xEB2 PUSH2 0x115C JUMP JUMPDEST PUSH1 0x0 DUP3 PUSH2 0x11BF JUMPI PUSH4 0x4E487B71 PUSH1 0xE0 SHL PUSH1 0x0 MSTORE PUSH1 0x12 PUSH1 0x4 MSTORE PUSH1 0x24 PUSH1 0x0 REVERT JUMPDEST POP DIV SWAP1 JUMP JUMPDEST DUP2 DUP2 SUB DUP2 DUP2 GT ISZERO PUSH2 0xEB2 JUMPI PUSH2 0xEB2 PUSH2 0x115C JUMP JUMPDEST DUP1 DUP3 ADD DUP1 DUP3 GT ISZERO PUSH2 0xEB2 JUMPI PUSH2 0xEB2 PUSH2 0x115C JUMP INVALID LOG2 PUSH5 0x6970667358 0x22 SLT KECCAK256 TLOAD 0xE8 SWAP5 DIV SGT 0xEC 0xB0 PUSH24 0x250ABE281C0BDBFBD357062F93DABAF13A7EC8ACD98FDF13 PUSH5 0x736F6C6343 STOP ADDMOD SHR STOP CALLER "
				},
				"gasEstimates": {
					"creation": {
						"codeDepositCost": "928000",
						"executionCost": "infinite",
						"totalCost": "infinite"
					},
					"external": {
						"COOLDOWN_PERIOD()": "240",
						"DEPOSIT_FEE_BPS()": "218",
						"WITHDRAWAL_FEE_BPS()": "285",
						"addPool(uint256,address)": "84281",
						"adjustAPY(uint256)": "34609",
						"calculateReward(uint256,address)": "infinite",
						"claimRewards(uint256)": "infinite",
						"feeWallet()": "2425",
						"getPoolCount()": "2337",
						"getPoolInfo(uint256)": "8934",
						"getUserLastStakedTime(uint256,address)": "4832",
						"getUserStakedAmount(uint256,address)": "4854",
						"owner()": "2354",
						"poolCount()": "2427",
						"pools(uint256)": "6771",
						"renounceOwnership()": "infinite",
						"setFeeWallet(address)": "26842",
						"stake(uint256,uint256)": "infinite",
						"stakingToken()": "2426",
						"transferOwnership(address)": "28443",
						"unstake(uint256,uint256)": "infinite"
					}
				},
				"methodIdentifiers": {
					"COOLDOWN_PERIOD()": "6e99d52f",
					"DEPOSIT_FEE_BPS()": "6bbf758d",
					"WITHDRAWAL_FEE_BPS()": "3a4ae669",
					"addPool(uint256,address)": "33ba8882",
					"adjustAPY(uint256)": "4d333a21",
					"calculateReward(uint256,address)": "a18f07a0",
					"claimRewards(uint256)": "0962ef79",
					"feeWallet()": "f25f4b56",
					"getPoolCount()": "8eec5d70",
					"getPoolInfo(uint256)": "2f380b35",
					"getUserLastStakedTime(uint256,address)": "b684edcf",
					"getUserStakedAmount(uint256,address)": "d13d8258",
					"owner()": "8da5cb5b",
					"poolCount()": "f525cb68",
					"pools(uint256)": "ac4afa38",
					"renounceOwnership()": "715018a6",
					"setFeeWallet(address)": "90d49b9d",
					"stake(uint256,uint256)": "7b0472f0",
					"stakingToken()": "72f702f3",
					"transferOwnership(address)": "f2fde38b",
					"unstake(uint256,uint256)": "9e2c8a5b"
				}
			},
			"storageLayout": {
				"storage": [
					{
						"astId": 8,
						"contract": "contracts/Staking.sol:StakingContract",
						"label": "_owner",
						"offset": 0,
						"slot": "0",
						"type": "t_address"
					},
					{
						"astId": 158,
						"contract": "contracts/Staking.sol:StakingContract",
						"label": "_status",
						"offset": 0,
						"slot": "1",
						"type": "t_uint256"
					},
					{
						"astId": 332,
						"contract": "contracts/Staking.sol:StakingContract",
						"label": "stakingToken",
						"offset": 0,
						"slot": "2",
						"type": "t_contract(IERC20)290"
					},
					{
						"astId": 337,
						"contract": "contracts/Staking.sol:StakingContract",
						"label": "feeWallet",
						"offset": 0,
						"slot": "3",
						"type": "t_address"
					},
					{
						"astId": 364,
						"contract": "contracts/Staking.sol:StakingContract",
						"label": "pools",
						"offset": 0,
						"slot": "4",
						"type": "t_mapping(t_uint256,t_struct(Pool)359_storage)"
					},
					{
						"astId": 366,
						"contract": "contracts/Staking.sol:StakingContract",
						"label": "poolCount",
						"offset": 0,
						"slot": "5",
						"type": "t_uint256"
					}
				],
				"types": {
					"t_address": {
						"encoding": "inplace",
						"label": "address",
						"numberOfBytes": "20"
					},
					"t_contract(IERC20)290": {
						"encoding": "inplace",
						"label": "contract IERC20",
						"numberOfBytes": "20"
					},
					"t_mapping(t_address,t_uint256)": {
						"encoding": "mapping",
						"key": "t_address",
						"label": "mapping(address => uint256)",
						"numberOfBytes": "32",
						"value": "t_uint256"
					},
					"t_mapping(t_uint256,t_struct(Pool)359_storage)": {
						"encoding": "mapping",
						"key": "t_uint256",
						"label": "mapping(uint256 => struct StakingContract.Pool)",
						"numberOfBytes": "32",
						"value": "t_struct(Pool)359_storage"
					},
					"t_struct(Pool)359_storage": {
						"encoding": "inplace",
						"label": "struct StakingContract.Pool",
						"members": [
							{
								"astId": 345,
								"contract": "contracts/Staking.sol:StakingContract",
								"label": "apy",
								"offset": 0,
								"slot": "0",
								"type": "t_uint256"
							},
							{
								"astId": 347,
								"contract": "contracts/Staking.sol:StakingContract",
								"label": "totalStaked",
								"offset": 0,
								"slot": "1",
								"type": "t_uint256"
							},
							{
								"astId": 350,
								"contract": "contracts/Staking.sol:StakingContract",
								"label": "rewardToken",
								"offset": 0,
								"slot": "2",
								"type": "t_contract(IERC20)290"
							},
							{
								"astId": 354,
								"contract": "contracts/Staking.sol:StakingContract",
								"label": "stakedAmounts",
								"offset": 0,
								"slot": "3",
								"type": "t_mapping(t_address,t_uint256)"
							},
							{
								"astId": 358,
								"contract": "contracts/Staking.sol:StakingContract",
								"label": "lastStakedTime",
								"offset": 0,
								"slot": "4",
								"type": "t_mapping(t_address,t_uint256)"
							}
						],
						"numberOfBytes": "160"
					},
					"t_uint256": {
						"encoding": "inplace",
						"label": "uint256",
						"numberOfBytes": "32"
					}
				}
			},
			"userdoc": {
				"kind": "user",
				"methods": {},
				"version": 1
			}
		}
	}
}